S00F000053442D434152442E7372656337
S214400000E0E44020752540007325400073254000FD
S2144000107325400073254000732540000000000013
S21440002000000000000000000000000073254000B3
S21440003073254000000000007325400073254000F3
S21440004073254000732540001D6540007325400021
S21440005073254000732540007325400073254000FB
S2144000607325400000000000D51D4000E91D4000FB
S214400070FD1D400073254000732540007325400059
S214400080111E4000251E4000732540007325400089
S21440009073254000732540007325400073254000BB
S2144000A073254000732540007325400073254000AB
S2144000B0732540007325400073254000732540009B
S2144000C0732540007325400073254000732540008B
S2144000D0000000007325400000000000732540002B
S2144000E0732540007325400073254000732540006B
S2144000F0732540007325400073254000732540005B
S214400100732540007325400073254000732540004A
S21440011073254000000000000000000000000000C2
S214400120732540007325400073254000732540002A
S21440013073254000000000007325400073254000F2
S21440014010B5054C237833B9044B13B10448AFF3CC
S21440015000800123237010BDF009402000000000FD
S2144001606CD940000C4B43B10C480D4910B5AFF369
S21440017000800C48036823B910BD0A48036833B9A9
S2144001807047094B002BF7D0BDE810401847064B88
S214400190002BF5D0184700BF000000006CD9400087
S2144001A0F40940206CD940000000000010B5074B11
S2144001B0196891F82230003318BF01234A7C096839
S2144001C003480078034CA04710BD00BF0C0A4020EF
S2144001D0150A40206516400008B104207047324B8F
S2144001E09A68324B03EB52135B02D96B02F01F0244
S2144001F0012303FA02F20A4210D02B4B9B7B012BC1
S21440020004D00422284B9A7302207047284B1B7850
S214400210002BF6D00022274B1A60F2E710B5224B8F
S2144002209B7B042B05D0012B19D0032B2CD103200C
S21440023010BD01221C4B9A731E4B1B683BB91C4BCE
S2144002401A701C4B1C4959601A60022010BD0022CF
S214400250174B1A7019481A4B9847022010BD144B7A
S2144002601B783BB1134B1B6813F4803F1AD0002217
S214400270104B1A600C4B02229A73124A1A600122E3
S2144002805A74002283F8222000220F4B1A70064C24
S2144002900E4B1C600E4B9847A07B022814BF0020D4
S2144002A0012010BD022010BD0C0040200707200092
S2144002B0140A402010E000E060343C026BAF0303B9
S2144002C001004020801A0600150A40200C0A4020F3
S2144002D0AD01400038B5049C520242EAC36242EA8D
S2144002E0017242EAC0722178114341F23430054B24
S2144002F09847054608B9284638BD034B98472070AE
S214400300F9E700BF4D1740007117400010B5094B84
S2144003101B689989090441F60930074B98470446FB
S21440032008B9204610BD034B18681230034B984757
S214400330F7E700BF0C0A40204D17400079174000F1
S21440034008B5044B1B7803B108BD0020024B984704
S214400350FAE700BF150A40202917400008B51020CC
S214400360054B98470422054B9A73FF22044B1A709C
S214400370044B984708BD00BF591F40000C00402062
S214400380150A4020291640002DE9F04395B0A74BAA
S21440039098470446012805D0A54B9847204615B0F7
S2144003A0BDE8F08314AE082306F8453DA14B1B6814
S2144003B00127DF7300251D749D819F4B984700964B
S2144003C02B460622294638469C4EB04729464FF4CF
S2144003D080409B4B984730B9964B1B6803249C73D0
S2144003E0934B9847DAE74FF4D57145F20850944B53
S2144003F09847002840F093804FF00009002144F2CF
S21440040005508F4B9847002840F09780894B1B68D3
S214400410DB7B13F0010F40F0B580002145F203105E
S214400420874B98470028D7D0824D2E68854B9847F3
S214400430000CB0812B68DB7B13F0010F34D0824B6D
S21440044098470028C8D02B685A7DC2F3C30002F0F4
S21440045007027E4951F822104FF47A7202FB01F2ED
S2144004607B4951F8201002FB01F21A609A7C9209EF
S21440047040F00C82997E587E1A7E920242EA8002B2
S21440048042EAA112187FD97E490041EAE011C2F340
S2144004900B02013201F0070102318A40D97D01F09A
S2144004A00F018A40920A5A60624B1B689989090478
S2144004B043F20710624B984700288DD05D4B1B686F
S2144004C0DA7B12F0010F40F0EE815A4B1B68DB7B63
S2144004D013F0040F00F09D8209250027574EA5F122
S2144004E0090303AA134400933B462A463946384636
S2144004F0B04701350D2DF2D19DF80D309DF80C908A
S21440050009EB03299DF80E3009EB03499DF80F309F
S21440051009EB03694E464FF00008484F3AE2494B14
S2144005209847B0F1FF3F00F04A83C0F30B00B0F5A8
S214400530D57F7FF451AFB94660E7424B984710F0FD
S214400540E04F3FF463AF41F2893544F205583C4EE4
S2144005503C4F00F4FC114046B04700283FF43CAF07
S214400560B847002802DB013DF3D135E710F0006FB5
S21440057004D1304B1B680422DA734EE72D4B1B68C0
S2144005800522DA73B9F1000F324F14BFB9464FF463
S214400590FC1940F635054FF00008294E294F4146D4
S2144005A041F23710B04748B1494644F22950B04767
S2144005B020B1B847002820DB013DF0D11D4B1B6819
S2144005C00222DA7300214FF480401D4B98470028E2
S2144005D03FF402AF41F26905DFF87880184E194FB4
S2144005E0414644F20150B04700283FF4F5AEB847C4
S2144005F0002831DB013DF3D1EEE610F0804F05D008
S2144006000C4B1A68D37B43F00803D373094B1B6823
S214400610DB7B13F0010F3FF400AF002145F60230BC
S214400620074B984700287FF4F8AED5E6D90140003E
S214400630410340000C0A40202B174000D5024000E2
S2144006404D174000711740000D034000B4CD4000E8
S214400650D0CD400000801F4000F0C040B0F1804F39
S21440066027D0002145F60230A54B984700283FF496
S214400670B3AEA44B1B6801229A814FF4803141F2FD
S21440068003109F4B984700283FF4A6AE9E4B9847D2
S21440069000283FF4A1AE9B4B1A68937CC3F38303B8
S2144006A0013B032B0CD8DFE813F0CD00D000D3007D
S2144006B0D600944B1A68D37B43F00803D373D0E735
S2144006C012231374537DC3F3C30003F007038F490B
S2144006D051F823104FF47A7303FB01F38C4951F819
S2144006E0201003FB01F31360917E507E137E9B0225
S2144006F043EA800343EAA113C3F30B0340F6FF71BA
S2144007008B420FD0107FD17E490041EAE011013381
S21440071001F0070102318B40D17D01F00F018B4083
S2144007209B0A53609189090443F20710744B98471B
S21440073000283FF451AE734B1B681B7C3F2B40F2A6
S21440074097800021009101234FF400727148724D4A
S214400750A84700283FF440AE0025704E03A8B04797
S21440076000283FF439AE0135ADB2322DF6D1039EA6
S21440077006F00206634B1B689A7E597E1B7E9B02E0
S21440078043EA810343EAA213C3F30B0340F6FF7226
S21440079093420ED1614F04A8B84700283FF41CAEE0
S2144007A00135ADB2352DF6D9564B1A68049B5B0819
S2144007B053605A4F7F2D51D9594B1878594B98470B
S2144007C003281DD9564B1878564B9847054604289B
S2144007D04CD0554B5549082818BF194643F20610C9
S2144007E0474B984700283FF4F7AD514B984710F0D9
S2144007F0800F7FF4F1AD434B1B685D744D4B9847BB
S2144008004D4B9847BEB1B0B14C4943F206103C4BF5
S214400810984700283FF4E0AD454B984710F0800FCE
S2144008207FF4DAAD374B1B68012283F82220444A16
S2144008301A60404B98470A254FF4007841F210174B
S2144008402F4E1DE0142313743CE72223137439E71C
S2144008503023137436E74023137433E704A8B847AD
S21440086000283FF4B9AD0135ADB2A3E73549B5E749
S214400870304B9847DFE7013D15F0FF053FF4ACAD40
S21440088041463846B0470028F5D00EE1D97E987EDE
S2144008905A7E120442EA00220A43C2F3150201328B
S2144008A052025A6000E69989090441F23710144B07
S2144008B0984700283FF490AD01230093082200217A
S2144008C02148154DA84700283FF486AD012104A8CD
S2144008D01E4B984700283FF47FAD1D4B9847002895
S2144008E03FF47AAD9DF8103003F00F03012B36D05D
S2144008F083B3022B38D0034B1B6810221A74E4E5EE
S2144009004D1740000C0A40200D034000B4CD400077
S21440091074CD400008110800A91740007118400027
S214400920150A4020551640000000B7010002B701E6
S21440093071174000AD0140005F1640000001B9034A
S214400940007519030001B70133110800E51840008F
S214400950DD1940009B4B1B6810221A74B5E5994B75
S2144009601B681A221A74B0E59DF81230DB09954BC5
S2144009701B6814BF302220221A74A6E59DF8113059
S214400980002B3FF429AD02331E4409F580739E4286
S2144009903FF622AD002504AB2B4400934346721924
S2144009A041464046B8470135032DF4D19DF81030F6
S2144009B0FF2B3FF411AD222BE0D19DF81230002BD7
S2144009C0DCD104AD06F106094FF000087E4F0095D5
S2144009D04346324641464046B847013601354E45C5
S2144009E0F5D19DF81530322B28BF3223754A126850
S2144009F0C3F3C30003F00703744951F823104FF4C0
S214400A007A7303FB01F3724951F8201003FB01F39C
S214400A101360704B1878704B9847032822D9694B5F
S214400A201B68DB7B13F0040F46D1664B1B68DA7BF2
S214400A3012F0010F14D09989090441F23710674B20
S214400A40984700283FF4C8AC022141F20610634B99
S214400A50984700283FF4C0AC5A4B1B6804225A748F
S214400A605F4B98475F4B984780B1564B1B68DB7B84
S214400A7013F0040F41D1534B1B68DA7B12F0010F81
S214400A8002D01B7C102B5ED8554B98474D4B1B68AD
S214400A90DB7B13F0010F08D04FF4007141F21010C9
S214400AA04E4B984700283FF497AC464B1B680022B5
S214400AB09A734D4B984771E404AB00930023082289
S214400AC019461846404DA84700283FF485AC9DF986
S214400AD01030002BA9DA14AB022203F8402D009305
S214400AE00123072200211846A84700283FF474AC8B
S214400AF0344B1B6804225A7497E704AB00930023D8
S214400B00132219461846304DA84700283FF464ACD7
S214400B109DF8103013F0010FADD014AB022203F84D
S214400B20402D00930123132200211846A847002891
S214400B303FF452AC234B1B68012283F822201A68EC
S214400B4052001A6097E740252A46002104A8274B02
S214400B509847012300932A4625492648264DA8470C
S214400B6000283FF439AC012104A8244B98470028BC
S214400B703FF432AC224B984700283FF42DAC214B33
S214400B80984710F0800F7FF427AC9DF8203003F094
S214400B900F030F2B3FF478AF9DF82D309DF82C2097
S214400BA053EA02237FF418AC174B9847054B1B6853
S214400BB0012283F822201A6852001A6064E74FF038
S214400BC000091BE40C0A4020D5024000B4CD40008A
S214400BD0D0CD4000150A4020551640004D17400025
S214400BE0AD0140005F16400041034000C56A40002A
S214400BF001FFFF8006110800A9174000E5184000D5
S214400C00DD194000711740002B17400008B5054B12
S214400C10984708B1002008BD034B9847034B1B6814
S214400C20D87B08BDD9014000410340000C0A402053
S214400C3008B5054B984708B1002008BD034B9847B8
S214400C40034B1B68586808BDD9014000410340006B
S214400C500C0A4020002070472DE9F04782B08A46B3
S214400C609146264B9847804618B1404602B0BDE8AC
S214400C70F087234C234E244D244F3368998909042A
S214400C8041F20D10A84728B1B84710F4807F17D11D
S214400C90013CF2D11E4B98474FF00508E5E71B4B49
S214400CA098471C4B034033B91B4BA3F800901B4B93
S214400CB0A3F80090D9E7164B98474FF00508D4E7BD
S214400CC0174B1848B9F1010F98BF18460D4B1B68D3
S214400CD0DB7B13F0080F01D14FEA4A2A0123009329
S214400CE04B464FF4007251460F4CA0470028D6D1D1
S214400CF0074B98474FF00508B7E700BFD9014000BB
S214400D00410D03000C0A40204D174000711740006B
S214400D1041034000000058E4100A4020120A4020D8
S214400D201111080012111000A917400010B50C460A
S214400D30064B984720B90022054B1A80052010BD67
S214400D40034A13881C1B1480002010BDE518400081
S214400D50100A402010B50446134B984708B90520A2
S214400D6010BD84B10022114B1A80114B1B88012BF9
S214400D700FD0002143F20C100E4B984768B10E4B33
S214400D809847002010BD094B1B88002BEDD0002053
S214400D9010BD094B9847002010BD002143F20C10AF
S214400DA0044B9847EBE700BFDD194000100A40208F
S214400DB0120A40204D1740004103400070B582B0F3
S214400DC00E461546164B98470446B8B9154B164876
S214400DD0012D98BF1846154B1B68DB7B13F0080F98
S214400DE008BF7602012300932B464FF4007231462B
S214400DF00F4EB04728B90F4B98470524204602B0FF
S214400E0070BD0D4B98470D4B034023B90C4B1D80CE
S214400E100C4B1D80F2E7074B98470524EEE700BFD2
S214400E20D901400018910800199110000C0A402082
S214400E30A91740004103400071174000000058E4E5
S214400E40100A4020120A402010B50C46064B984720
S214400E5020B90022054B1A80052010BD034A13888E
S214400E601C1B1480002010BD411A4000100A402070
S214400E7010B50446124B984708B9052010BD84B1FA
S214400E800022104B1A80104B1B88012B0FD00021DC
S214400E9043F20C100D4B984768B90D4B9847052008
S214400EA010BD084B1B88002BEDD0002010BD084B12
S214400EB09847002010BD064B9847002010BD00BF45
S214400EC0391B4000100A4020120A40204D174000AF
S214400ED04103400010B504460F4B9847012818D0F0
S214400EE018B1022810D0012010BD0C4B1B5D0BB171
S214400EF0022010BD20460A4B984700F00300002809
S214400F0014BF0020022010BD0022044B1A550220B8
S214400F1010BD032010BD00BF89034000180A4020C2
S214400F200D0C400008B50020014B984708BD00BF97
S214400F30D50E400038B504460D46044B9847400051
S214400F40013828602046024B984738BD310C400097
S214400F50D50E400008B501460020014B984708BD15
S214400F60350F400008B50020014B984708BD00BF2C
S214400F70550C400010B5144601220A4B984720B144
S214400F8002280CBF0220012010BD01212046064B3E
S214400F90984708B1012010BD044B9847003018BF51
S214400FA0012010BD590C40002D0D4000550D40004D
S214400FB008B50A4601460020014B984708BD00BFC9
S214400FC0750F400010B5144601220A4B984720B1D1
S214400FD002280CBF0220012010BD01212046064BEE
S214400FE0984708B1012010BD044B9847003018BF01
S214400FF0012010BDBD0D4000490E4000710E40005E
S21440100008B50A4601460020014B984708BD00BF78
S214401010C50F400010B51048104B98473E210020A1
S2144010200F4B98470F4CA0470028FCD00E4B9847D4
S2144010300E4A0F4B9A620F4CA0470028FCD0022065
S2144010400D4B984700200D4B98470D4B984702484C
S214401050024B984710BD00BF00A3E111492740004E
S214401060D51E4000291F4000391F4000013F182070
S21440107000060E40491F4000391E4000711E4000C9
S2144010803D26400008B10120704708B5014B9847FF
S21440109008BD00BF250F400008B10120704708B5C5
S2144010A00846014B984708BD550F4000B0FA80F0FF
S2144010B04009704708B10120704708B5014B984772
S2144010C008BD00BF650F400008B10120704708B555
S2144010D008461146014B984708BD00BFB10F400077
S2144010E008B10120704708B508461146014B98479D
S2144010F008BD00BF011040002DE9F04180B90C4604
S2144011009046002A0FDD8F18084E094D306821465C
S2144011102B6898470134BC42F8D14046BDE8F08180
S2144011204FF0FF38F9E78046F7E700BF48C4402055
S21440113040C440200138022815D82DE9F0410E461B
S21440114014469AB10D46DFF838800C4FD8F80000A8
S21440115015F8011B3B68984700280ADBA81B013C92
S214401160F4D1BDE8F0814FF0FF3070471046BDE83F
S214401170F0814FF0FF30BDE8F08100BF44C440200E
S21440118048C44020F8B54FF40042B84B5A60BFF30D
S2144011905F8FB74F3846B74DA847B74E40EA06016F
S2144011A01120B64CA047B648A847B6490143B648B2
S2144011B0A0473846A84740EA0601B448A047B44886
S2144011C0A84706F1087606F5403640EA0601B148DB
S2144011D0A047B148A84740EA0601B048A0476FF08C
S2144011E06040A847AE4E40EA0601AE48A0476FF0C2
S2144011F07040A847AC4F40EA0701AC48A0476FF0A4
S2144012007040A847AA490143AA48A0476FF06040EB
S214401210A84740EA0701A848A047A848A84740EA88
S2144012200601A748A047A74C636A43F4E0236362DD
S2144012300520A54B9847BFF34F8FBFF36F8FBFF383
S2144012404F8FBFF36F8F0023C4F85032636943F467
S21440125000336361BFF34F8FBFF36F8FD4F8807056
S214401260C7F34E3607F007000430C7F3C907B7FA8E
S21440127087FE0EF01F0EBFF34F8F4FF0FF3404FA79
S21440128000FC06FA00F004FA0EF407FA0EFE8D4D46
S2144012903A46734640EA0301C5F86012013A2344D1
S2144012A0B2F1FF3FF6D1013E6044B6F1FF3FEFD1C9
S2144012B0BFF34F8F834B5A6942F480325A61BFF373
S2144012C04F8FBFF36F8F814A81495160A1F580717E
S2144012D05160BFF34F8FBFF36F8FD3F8902222F049
S2144012E00102C3F89022D3F8942222F00102C3F8F8
S2144012F09422BFF34F8FBFF36F8F0A20754CA047E1
S2144013000B20A0470C20A0471020A0471120A04744
S214401310714A4FF480731361C2F8A03013636F4B69
S2144013204FF400615961C3F8A0105966C3F8901095
S21440133059651962C3F88410186F20F40060186766
S214401340586F20F400605867C3F8C010C3F8D41034
S214401350C3F8B0104FF400111966C3F890105965E1
S2144013605962C3F88010186F20F400101867586F41
S21440137020F40010586759605948D0F8141141F0CD
S2144013801001C0F8141100F5B22010210166C0F813
S214401390901041654162C0F88010046F0C430467AA
S2144013A0446F0C434467416008201866C3F89000B9
S2144013B058655862C3F880001C6F24F008041C6708
S2144013C05C6F24F008045C6758601966C3F8901098
S2144013D059655962C3F88010186F20F010001867DE
S2144013E0586F20F01000586759604FF080511966CA
S2144013F0C3F8901059655962C3F88010186F20F0F2
S21440140080501867586F0843586759604FF000710E
S2144014101966C3F8901059655962C3F88010186F62
S21440142008431867586F0843586759604FF0804123
S2144014301966C3F8901059655962C3F88010186F42
S21440144020F080401867586F0843586759604FF03F
S21440145000411966C3F8901059655962C3F8801068
S214401460186F20F0004018673CE000BF50180E4050
S214401470FFFF3F00B51B400001000001A91B4000D4
S214401480FFFF1F000100230612004000130000204B
S214401490FFFF030014004020FFFF0100150044201A
S2144014A00100011316000040010000031700006011
S2144014B0010025031800007019000080FFFF0F0090
S2144014C01A0010A000ED00E09D1B4000000C0E40EE
S2144014D00C08005A591F400000120E40000E0E40E5
S2144014E000800840586F0843586759604FF0806145
S2144014F01966C3F8901059655962C3F88010186F82
S21440150020F080601867586F0843586759604FF05E
S21440151000611966C3F8901059655962C3F8801087
S214401520186F20F000601867586F08435867596076
S2144015304FF480335361C2F8A0305366C2F89030FF
S21440154053655362C2F88030136F23F480331367B9
S214401550536F23F480335367F8BD00BF70B44FF029
S21440156080435D689C68D868D9695A6D80261E603D
S2144015705D609C60D860D9615A6500221A65052274
S2144015801A6070BC7047000008B501F03F0318436E
S21440159011F4807F04D011F4006F0ED040F48450D4
S2144015A011F4804F18BF40F400604FF080431A613A
S2144015B05861184601F480520DE011F4005F14BFE4
S2144015C040F4865040F48250EAE713F41B0F0CD1E7
S2144015D013F0010F0DD1036C002AF6D013F41F0F41
S2144015E0F6D0104B9847002008BD0E4B9847002079
S2144015F008BD11F4005F03D1012008BD012008BDDD
S2144016004FF080431B6C4FF0FF324FF0804103F0A9
S2144016103003202BF2D00B6C013AF8D1014B98479F
S214401620002008BD5D15400010B51220084CA047AC
S2144016303A20A0474FF0804372229A60DA61112226
S2144016405A654FF4E0625A6005221A6010BD00BF2A
S214401650591F400000280CBF04200020704701207E
S214401660704700007BB34FF08040436D43F4807377
S21440167043652B4BB3EB410F37D310B42948B0FB2F
S214401680F1F301FB130129BB023B4FF08041486850
S21440169020F0FF0048604C68C3F347002043486092
S2144016A013F0010F18D04B6843F480334B60042A84
S2144016B019D0082A0CBFC02200224FF08043DA60BF
S2144016C05DF8044B70474FF08040436D23F48073C1
S2144016D04365CEE7013BD8E74FF080414B6823F4A3
S2144016E080334B60E3E78022E7E74FF0804359685A
S2144016F021F0FF015960596859604FF080414B68AE
S21440170023F480334B60042A07D0082A0CBFC0223B
S21440171000224FF08043DA6070478022F9E700BF2E
S2144017207FD1F00880D1F00870474FF080435A6868
S21440173022F460525A6000221A614FF410625A61D5
S2144017401A46136C13F0010FFBD0704710B54FF0DC
S21440175080435A6822F460525A6000241C659C619B
S2144017600A4601462046014B984710BD8915400061
S2144017704FF08043186A704710B4031D14304FF082
S2144017808044226A110E03F8041C110C03F8031C53
S214401790110A03F8021C03F8012C04338342F0D1EB
S2144017A05DF8044B7047000070B59DF8104084B358
S2144017B04FF480754FF0804425654FF080456C6847
S2144017C044F4C0546C6012F0030F27D06C6844F4A5
S2144017D000546C6000F40044002C14BF4FF4803476
S2144017E04FF4A02410F4803F1FD143EA02454FF047
S2144017F08046B56110F4003F2BD110F4802F2BD1DA
S21440180010F4002F18D110F4801F18BF44F40024A1
S21440181012E000254FF080442565CEE74FF0804526
S2144018206C6824F400546C60D4E744F40014C2F3AB
S21440183008054FF08046B5610026094D2E60094DDB
S2144018402A80094A13800A4601462046074B984795
S21440185070BD44F42014EFE744F48014ECE700BF76
S214401860200A40201A0A40201C0A402089154000C1
S21440187008B54FF08041164A0B6C13421DD113F049
S214401880020FF9D04FF080431B6B0360114A136878
S21440189004331360104A1188104A128802FB01F282
S2144018A0934212D34FF08041094A0B6C134208D141
S2144018B013F0006FF9D0012008BD094B984700206F
S2144018C008BD074B9847002008BD012008BD00BF53
S2144018D0000060C0200A40201A0A40201C0A40200F
S2144018E05D1540002DE9F04188B004460D462022A3
S2144018F000216846304B98470122304B1A62304BE5
S2144019001B8805FB03F514F0030F4AD12D4B0393B8
S214401910AB0800934FF08042536823F40053536063
S214401920294B019302946A4600212448274B984746
S214401930274BD3F88030C3F34E3703F0070004300C
S214401940C3F3C90EBEFA8EFC0CF01F0CBFF34F8FCC
S2144019504FF0FF3404FA00F807FA00F004FA0CF4EB
S2144019600EFA0CFC1A4E7246634643EA0001C6F86D
S2144019707412013A2344B2F1FF3FF6D1013F40448E
S214401980B7F1FF3FEFD1BFF34F8FBFF36F8F01200B
S2144019900A4BD8610F4A13682B44136008B0BDE861
S2144019A0F0810D4B039300954FF08042536843F40B
S2144019B000535360B4E700BFC56A4000008007404C
S2144019C01A0A40200130040000020040372540003B
S2144019D000ED00E0200A40200120040070B5124BC4
S2144019E01B88124A128802FB03F2114B1C684FF008
S2144019F080401049104E09E0104B984701220E4B8C
S214401A001A62002070BD13F0006F0AD1036C0B42BF
S214401A10F2D1A242F7D9F56D15F0010FF3D00120AF
S214401A2070BD012070BD00BF1A0A40201C0A40202D
S214401A30200A4020000060C0008007405D1540003E
S214401A402DE9F04188B004460D4620220021684624
S214401A50304B98470122304B1A62304B1B8805FBAF
S214401A6003F514F0030F4AD12D4B0393AB080093B4
S214401A704FF08042536823F4005353600194294B3F
S214401A8002936A4600212448274B9847274BD3F8B1
S214401A908030C3F34E3703F007000430C3F3C90E5B
S214401AA0BEFA8EFC0CF01F0CBFF34F8F4FF0FF3486
S214401AB004FA00F807FA00F004FA0CF40EFA0CFCEC
S214401AC01A4E7246634643EA0001C6F87412013A5B
S214401AD02344B2F1FF3FF6D1013F4044B7F1FF3F08
S214401AE0EFD1BFF34F8FBFF36F8F01200A4BD86102
S214401AF00F4A13682B44136008B0BDE8F0810D4BC5
S214401B00039300954FF08042536843F4005353606C
S214401B10B4E700BFC56A4000008007401A0A40206C
S214401B2011500100000200403725400000ED00E063
S214401B30200A40201140010070B5124B1B88124A03
S214401B40128802FB03F2114B1C684FF0804010498C
S214401B50104E09E0104B984701220E4B1A620020A7
S214401B6070BD13F0006F0AD1036C0B42F2D1A24253
S214401B70F7D9F56D15F0010FF3D0012070BD0120A7
S214401B8070BD00BF1A0A40201C0A4020200A402090
S214401B90000060C0008007405D154000014B586063
S214401BA0704700BF90ED00E0014BD8601961704768
S214401BB090ED00E0202809D904232022013352006A
S214401BC0904201D91E2BF9D9580070470423FBE7F1
S214401BD001637047416370474264B1F1C05F3AD0D9
S214401BE013D8B1F1006F25D0B1F1805F0AD1036FF1
S214401BF013430367436F416F0B4023EA0203436777
S214401C00426070470029FBD17047B1F1205F21D078
S214401C1009D8B1F1005FF3D1036F13430367436FF5
S214401C2013434367ECE7B1F1405F13D0B1F1605F17
S214401C3010D0E5E710B4016F046FD34321401C4633
S214401C4019400167436F416F0B4023404367426032
S214401C505DF8044B7047036F016F0B4023EA0203A5
S214401C600367436F13434367CAE7416412F0010FAB
S214401C700DD1016612F00A0F0BD0016212F0020F6E
S214401C8009D112F0080F08D0C0F8841005E041666C
S214401C90F0E74162F2E7C0F88010416101607047AA
S214401CA010B4019C41644CB901664BB101654AB918
S214401CB04163016101605DF8044B70474166F4E79B
S214401CC04165F4E70163F4E7836B0B4214BF0120E0
S214401CD00020704712F0100F12D0C0F8B01012F06B
S214401CE0200F07D0C0F8D41012F0400F05D0C0F82F
S214401CF0C0107047C0F8D010F6E7C0F8C410704760
S214401D00C0F8B410704701647047C06C7047806C70
S214401D10704700002DE9F041044688460E4B984730
S214401D20054620460D4B9847054013D00C4C04F111
S214401D30600603E0B4420DD010345DB120684045E3
S214401D40F8D161682942F5D0E3689847636825EA88
S214401D500305EFE7BDE8F0810B1D40000F1D400076
S214401D60240A4020F8B5184C2668062E2AD84FF08C
S214401D70000C6446154F04E00134E4B2A446A64283
S214401D8009D3A64625017D598D42F5D107EB0415AA
S214401D906D689542F0D10D4D4FEA0E1E05EB0E04D0
S214401DA045F80E106260A3600699E160013666450C
S214401DB005D011461A46064B98470020F8BD024902
S214401DC00E60F6E70120F8BD940A4020240A402021
S214401DD0D51C400008B50A210148024B984708BD6B
S214401DE0000E0E40151D400008B50B210148024B61
S214401DF0984708BD00100E40151D400008B50C2140
S214401E000148024B984708BD00120E40151D400081
S214401E1008B510210148024B984708BD00140E40F3
S214401E20151D400008B511210148024B984708BDD2
S214401E3000160E40151D4000032811D0042812D06D
S214401E4002280CBF4FF480710021084A136B23F41C
S214401E5040730B431363936E13F0080FFBD0704729
S214401E604FF44071F1E74FF40071EEE700060E4084
S214401E70174A136B23F0700318431063936E13F0E6
S214401E80080F0AD14FF4805311498A6E12F0080F9A
S214401E9003D1013BF9D1012070470D4A136B23F063
S214401EA0030343F002031363936E13F0080F0AD143
S214401EB04FF4805306498A6E12F0080F05D1013B55
S214401EC0F9D101207047002070470020704700BFBE
S214401ED000060E40A0B90E48036A090289B20D4AB0
S214401EE01A400D4B1343194301620246936E13F09A
S214401EF0010FFBD0064A116A084B0B43136270472A
S214401F0003490B6A064A1A40064B13430B62704756
S214401F1000060E40FCFFC8FF0100370000003701F6
S214401F20FCFFC8FE02003701024B986E00F480307A
S214401F30704700BF00060E404FF00052014B9A62B9
S214401F40704700BF00060E40024B986E00F002003D
S214401F50704700BF00060E403F281ED81F280CD8EA
S214401F60114B9A6901238340934318D0012303FA07
S214401F7000F00D4B18610020704720380A4BD3F80C
S214401F8008210123834093430BD0012303FA00F03A
S214401F90054BC3F800010020704701207047002021
S214401FA070470020704700BF00060E4021B94368C6
S214401FB023F0010343607047436843F001034360E6
S214401FC070470162704730B485688468A54203D084
S214401FD085688468AC42FBD161B1C4F3015000EB24
S214401FE08005C4F3034000EB450014F4800F18BF8F
S214401FF00C30086042B1C4F3023101EB8101C4F3F6
S214402000032000EB4101116043B1C4F3021202EB1E
S214402010820204F00F0404EB42041C6030BC70479C
S214402020F0B4446814F0010F05D00C2903D90C39DC
S2144020304FF4800700E000271C4CA4FB0356F6082C
S21440204006EB8605A3EB450343EA0613A4FB0265AD
S214402050ED0843EA053305EB8505A2EB450543EA63
S21440206005233B43A4FB0142D20843EA025302EB5A
S2144020708202A1EB420143EA0141836913F0040F57
S214402080FBD0036843F001030360836913F0010F3C
S214402090FBD00123C3618160036823F00103036022
S2144020A0C06A00F00100F0BC704700BFCDCCCCCC7D
S2144020B0F0B4049EC568C468A54203D0C568C46829
S2144020C0AC42FBD199B1C4F3033000EB8000C4F3BB
S2144020D0032707EB4007C4F3021000EB800504F02B
S2144020E00F0000EB4500642505FB0070086042B118
S2144020F0C4F3005081000844C4F3034101EB40019F
S214402100116043B1C4F3017202EB8202C4F303616F
S21440211001EB42021A6016B1C4F342543460F0BC7C
S2144021207047000070B42A4DA5FB0346F608039C92
S214402130640544EA067406EB8606A3EB460344EAC7
S2144021400363A5FB0264E40843EA045304EB8404F7
S214402150A2EB440243EA02421E4BA3FB01439B0907
S21440216042EA03121C4BA3FB01435B09A5FB036435
S214402170E40804EB8404A3EB44031A43A5FB0143A1
S214402180DB0803EB8304A1EB440142EA0122A5FBF2
S2144021900315ED0805EB8505A3EB450542EA053238
S2144021A0836913F0040FFBD0036843F00203036017
S2144021B0836913F0010FFBD00123C361C26003683B
S2144021C023F002030360C06A00F0020070BC704750
S2144021D0CDCCCCCCD34D62101F85EB518069704777
S2144021E0C1617047284B99424BD8A3F57A53994220
S2144021F02DD910B4254CA4FB0234A40B033C244B2D
S2144022000B449B00B2FBF3F2033AFF2C1DD900218E
S21440221001316408FF2C01D90629F9D9FF2A07D9CC
S214402220062905D801315208FF2A01D90629F9D9CD
S21440223013029BB2090401F4E0210B43E4B22343AA
S214402240036100205DF8044B70470021E6E7490033
S214402250B2FBF1F2033AFF2A11D9002301335208A8
S214402260FF2A01D9062BF9D9110289B21B0403F4BF
S214402270E0230B43D2B21A4302610020704700238A
S214402280F2E70120704700BF801A0600F119760574
S2144022900012FD3F08B54FF0FF328262026A80228C
S2144022A00260026B08220260202202600422026062
S2144022B00A684968034B9847012814BF002001204C
S2144022C008BD00BFE5214000CB68002B46D070B467
S2144022D08C68002646604A68120202F4407242F455
S2144022E080520D7C2D0405F4FE052A434260C660EC
S2144022F04D685DB10A78012D02DD4E7846EA02222D
S214402300022D04DD897841EA022200E00022C26004
S214402310012202600225026A47F23051012B08D0A2
S21440232012F0020F13D0026B04F8012B013BF2D1DE
S21440233005E0056012F0020F0BD0036B2370036AB2
S21440234013F0010FFBD0036A002070BC7047002BCF
S214402350F5D0026A0139E1D10920F6E7012070473D
S214402360CB68002B43D070B48C68002646600A7C4D
S214402370120402F4FE024D682D0205F440752A430D
S2144023804260C6604D685DB10A78012D02DD4E7828
S21440239046EA0222022D04DD897841EA022200E064
S2144023A00022C26004E014F8012B4263013B0FD0C8
S2144023B0026A12F4807F1ED112F0040FF3D1026A33
S2144023C012F4807F15D112F0040FECD1002BF6D119
S2144023D0036A13F4807F11D113F0040FF8D0022360
S2144023E00360036A13F0010FFBD0002004E00120D5
S2144023F07047052000E0052070BC70470520FBE7CD
S214402400436913F0020F02D0C161002070470120DB
S2144024107047436913F0010F03D083690B700020A7
S21440242070470120704710B40B01934214D9C9007D
S2144024304B0803EBC202B2FBF1F2D3085C1E4FF628
S214402440FE718C4201D9012017E0416841F4002119
S21440245041600CE0012010E0590801EBC202B2FBDB
S214402460F3F2D3085C1E4FF6FE718C42F2D812048B
S21440247002F4E0221A43026200205DF8044B7047E3
S214402480084BC0F8E43000234360436283628823ED
S2144024900360242303604FF4807303604FF40023EB
S2144024A0036070470041535570B505460C461646C6
S2144024B00F4B984700220F4B1A60A4B13246216852
S2144024C028460D4B9847024678B96368A1680B4387
S2144024D021690B43E1680B4306490B6069680B436F
S2144024E06B60104670BD0122FBE70122F9E700BF92
S2144024F081244000980A402027244000402303605F
S2144025007047102303607047436913F0020F04D0EE
S214402510C1F30801C161002070470120704743693C
S21440252013F0010F05D08369C3F308030B60002046
S21440253070470120704700EB8111CB6D53680B66E6
S21440254093684B66136823F07F430B671369C3F3A6
S2144025500B034B675369CB67936923F07F43C1F8FE
S2144025608030D36923F07F43C1F88430D3688B67CB
S2144025707047FEE700B583B0254B264A9A4210D0F6
S214402580254B234A9A420CD2013B9B1A23F0030365
S214402590043313441F4951F8040B42F8040B9A4283
S2144025A0F9D11E4B1E4A9A420AD2013B9B1A23F08F
S2144025B0030304331344002142F8041B9342FBD127
S2144025C0184A194B23F07F039360EFF31083B3FA56
S2144025D083F35B09019372B6BFF35F8F0022134B00
S2144025E01A700199124A136843F470031360BFF3DC
S2144025F04F8FBFF36F8F29B101220C4B1A70BFF378
S2144026005F8F62B60B4B98470B4B9847FEE700BF71
S214402610000040206CD94000F0094020DCC4402037
S214402620F009402000ED00E000004000300040206F
S21440263088ED00E019694000E16640003B4B1B6BAB
S21440264003F00303012B1DD083B1022B36D0374B4A
S2144026501B6B03F07003702B5FD0344B1A6B3449FE
S214402660C2F302120B68D3400B607047314B5B6974
S21440267013F0800F14BF4FF400424FF4FA422C4B35
S2144026801A60E4E7294B1B6A13F0807F03D02A4A7E
S214402690274B1A60DBE7294A254B1A60234B1B6AF7
S2144026A003F07003102B05D0202BD0D1224A204BAC
S2144026B01A60CCE7224A1E4B1A60C8E71B4B1B6ABF
S2144026C013F0807F16D01C4A194B1A60174B1B6BB1
S2144026D003F00303022BBAD1144A916A926A144853
S2144026E0C1F30A41036801FB0333D2B2B3FBF2F3F2
S2144026F00360ACE7114A0E4B1A600C4B1B6A03F0A2
S2144027007003102B05D0202BE0D10B4A084B1A60E3
S214402710DCE70B4A064B1A60D8E7054A13680949B6
S214402720A1FB03135B081360704700BF00060E4012
S2144027303400402010180E40001BB70000093D0032
S21440274000127A00ABAAAAAA164B984213D9164B87
S214402750984215D9154B984216D9154B984217D919
S214402760144B984218D9144B984294BF134A144AB3
S214402770144B1A6070474FF08062124B1A607047D5
S214402780114A104B1A607047104A0E4B1A60704739
S2144027900F4A0C4B1A6070474FF00422094B1A60E0
S2144027A0704700BFBFF35E017FE7BD023FDB1C04FE
S2144027B0FFCE7B05BFC2DA067FB6390800050004A7
S2144027C000060004000C0E40000100040002000455
S2144027D0000300040A4B1B6853B1094B1B681A18C8
S2144027E00849914208DB1046054A10601846704773
S2144027F0054A034B1A60F0E74FF0FF30704700BFC2
S2144028009C0A4020FCFF4520E0E640204FF0FF3089
S21440281070474FF400534B600020704701207047CC
S21440282000207047012801D90120704710B50446A2
S2144028300A4B9847032806D12046084B984703285A
S21440284001D1012010BD38B92046054B98470028D5
S21440285014BF0420002010BD012010BD851040008C
S214402860B510400008B5054B984720B102280CBF6C
S2144028700320012008BD002008BD00BF8510400091
S2144028802DE9F04F83B080460D4614461F46154B43
S214402890984718B9012003B0BDE8F08F064601A955
S2144028A04046114B9847B14606FB0742019B03FB47
S2144028B006639A4201D90420EDE7BA4677B176021C
S2144028C00027DFF828B02A4621464046D84738B980
S2144028D001374C4435445745F5D1DCE70020DAE76C
S2144028E00120D8E7AD10400099104000C9104000C4
S2144028F02DE9F04F83B080460D4614461F46154BD3
S214402900984718B9012003B0BDE8F08F064601A9E4
S2144029104046114B9847B14606FB0742019B03FBD6
S21440292006639A4201D90420EDE7BA4677B17602AB
S2144029300027DFF828B02A4621464046D84738B90F
S21440294001374C4435445745F5D1DCE70020DAE7FB
S2144029500120D8E7AD10400099104000E11040003B
S21440296010B582B01446032925D8DFE801F01D07CC
S2144029700F0201231360002002B010BD01A9114BC5
S2144029809847019B013323600020F5E70E4B98479C
S214402990082812D84FF48B7323FA00F010F0010F7A
S2144029A00DD000202070E7E7084B984700280CBF62
S2144029B000200320E0E70420DEE70120DCE70120DA
S2144029C0DAE700BF99104000AD1040008510400087
S2144029D030B58BB0114C07AB08AA09A92046104D5C
S2144029E0A84703AB009304AB05AA06A920460D4CA6
S2144029F0A047049B1B04059843EA4053099843EAC2
S214402A00C023089843EA4013079843EA50030698C1
S214402A10A0F2BC7043EA40600BB030BD60180E4078
S214402A20C71F4000B12040003AB101388A1811F85B
S214402A30013B00F8013F9142F9D1704722B182181C
S214402A4000F8011B8242FBD1704702398369023B82
S214402A50994204D28378806A01FB030070470020C5
S214402A607047024600F10B010020C30143EA5003C1
S214402A7012F8010B50FA83F3D8B28A42F5D1704768
S214402A8098B108B502780AB9092008BDC2888A42BA
S214402A9001D0092008BD4078054B984700F001005A
S214402AA0002814BF0320002008BD0920704700BF3F
S214402AB06528400038B5044601230A4600F1300137
S214402AC040781D4DA84708B1032038BD94F82F2202
S214402AD094F82E3243EA02231BB2184A934201D09E
S214402AE0022038BD94F8692094F868301B0443EA05
S214402AF0026394F86620134394F8672043EA02235F
S214402B0023F07F430E4A934213D094F8853094F8CE
S214402B108400000440EA036094F88230184394F836
S214402B20833040EA032020F07F40801A18BF0120FF
S214402B3038BD002038BD00BF8128400055AAFFFFA1
S214402B4046415400F8B503681C78303C092C0AD836
S214402B505D783A2D01D0002406E002330360072C4E
S214402B6002D90B20F8BD0024AE4B53F824500D601C
S214402B70002D00F03E8116462B787BB16878AA4B34
S214402B80984710F0010F09D1002E00F0348100F074
S214402B90040000280CBF00200A20F8BD00232B703C
S214402BA0E0B26870A14B984710F0010F01D00320A7
S214402BB0F8BD26B110F0040F01D00A20F8BD002160
S214402BC028469B4B9847012806D00024032800F04F
S214402BD01481C8B10D20F8BD95F8F2310BB90D201F
S214402BE0F8BD95F8F93195F8F841240444EA0364B1
S214402BF095F8F6311C4395F8F73144EA032421460C
S214402C0028468B4B9847E1E795F83C2095F83B30B3
S214402C1043EA02231BB2B3F5007F01D00D20F8BD76
S214402C2095F8473095F8462052EA03220DD195F89C
S214402C30573095F85620120442EA036295F854300D
S214402C401A4395F8553042EA0322EA6195F840E087
S214402C5085F803E00EF1FF33DBB2012B01D90D20DE
S214402C60F8BD95F83D60AE70002E00F0C880731E2B
S214402C70334201D00D20F8BD95F8423095F841100A
S214402C8041EA0321298111F00F0F40F0BA8095F8F0
S214402C90440095F8433053EA00230DD195F853008D
S214402CA095F852301B0443EA006395F850000343FE
S214402CB095F8510043EA002395F83F0095F83E709A
S214402CC057EA002700F09F8002FB0EFE07EB11102C
S214402CD070448342C0F099801B1AB3FBF6F3002B76
S214402CE000F0958040F6F576B3428CBF022601266A
S214402CF04FF6F57C634500F2A5800233AB61204475
S214402D00A8623C442C62002900F0898074446C62BE
S214402D10022E0BD15B0003F2FF13B2EB532F7CD392
S214402D204FF0FF332B610023EB6051E003EB430190
S214402D3003F0010303EB5103EDE795F82F2295F8D6
S214402D402E3243EA02231BB23A4A93424BD195F8BD
S214402D50332095F832301B0443EA026395F830205E
S214402D60134395F8312043EA0223334A93423CD139
S214402D7095F8172295F816321B0443EA026395F835
S214402D801422134395F8152243EA02232B4A934212
S214402D902DD195F81F2295F81E321B0443EA026394
S214402DA095F81C22134395F81D2243EA0223EB6054
S214402DB095F81B2295F81A321B0443EA026395F8ED
S214402DC01822134395F8192243EA02232B6103265F
S214402DD02E701B4A138801339BB21380EB80002071
S214402DE0E8622871F8BD0326F2E70326F0E70326DB
S214402DF0EEE70C20F8BD0020F8BD0120F8BD0D2000
S214402E00F8BD0D20F8BD0D20F8BD0D20F8BD0D20F5
S214402E10F8BD0D20F8BD0D20F8BD0D20F8BD0D20E5
S214402E20F8BD00BFA00A4020652840002528400085
S214402E30B52A400055AAFFFF525261417272416165
S214402E40C00A40200233AB612044A86227442F6268
S214402E500029E0D195F85F0095F85E10090441EA34
S214402E60006195F85C00014395F85D0041EA002159
S214402E7069629B0003F2FF13B2EB532FC9D34FF0A6
S214402E80FF332B610023EB606B7195F8613095F84A
S214402E90602042EA032222446A61012305F13001A0
S214402EA06878034CA04700283FF447AF03268FE7D7
S214402EB0812840002DE9F047C76A8F4235D00E463C
S214402EC0044603791BB92EBB0020BDE8F08700F10D
S214402ED0300801233A4641464078184DA84738BB4B
S214402EE000232371236AE26913449F42EBD2E578BC
S214402EF0012DE8D94FF0010ADFF84090E3691F44FE
S214402F0053463A4641466078C847013DEDB2012DEA
S214402F10F4D1D8E70123324604F130016078084DF9
S214402F20A84740B9E662BDE8F0870020BDE8F087D4
S214402F300120BDE8F0870120BDE8F087F128400079
S214402F408128400001296AD9F8B58369994268D238
S214402F500C4606460378022B2FD0032B41D0012B7C
S214402F6002D04FF0FF30F8BD01EB5107016A01EB8C
S214402F7057212D4B984710B14FF0FF30F8BDC7F39F
S214402F800803334493F830500137316A01EB572138
S214402F903046254B984710B14FF0FF30F8BDC7F389
S214402FA00807F01990F8300045EA002014F0010FA9
S214402FB014BF0009C0F30B00F8BD016A01EB1421F1
S214402FC0194B984710B14FF0FF30F8BD600000F441
S214402FD0FF70304490F8313090F8300040EA0320DB
S214402FE0F8BD016A01EBD4110F4B984710B14FF072
S214402FF0FF30F8BDA00000F4FE7000F1300232440D
S214403000D17893781B0443EA0163304490F830004B
S2144030101843537840EA032020F07040F8BD012062
S21440302070470120F8BD00BFB52E4000F8B50546F4
S2144030300C46C180816801293DD003689A69914257
S21440304001D30220F8BD61B91A78032A06D00022BF
S214403050EA601A89A24221D80220F8BD596A00299E
S214403060F5D09E783601B44210D3174F2868B8473B
S2144030700146B0F1FF3F20D0012820D92B689B693C
S21440308098421ED2A41BA4B2A642EFD9E960286893
S2144030900E4B984700EB1410286103E05B6A03EB85
S2144030A014132B612B68303304F00F0403EB4414E5
S2144030B06C610020F8BD0220F8BD0120F8BD02205A
S2144030C0F8BD0220F8BD00BF452F40004B2A400007
S2144030D02DE9F041012940F28F808369994201D35E
S2144030E002278AE015460C4606460378022B4ED049
S2144030F0032B5FD0012B03D00227012333717CE0E2
S21440310001EB5108016A01EB58213D4B98470746B1
S2144031100028F2D1C8F3080314F0010F1CD0334442
S21440312093F8302002F00F0242EA051283F830206E
S21440313008F1010801233371316A01EB582130460A
S2144031402F4B9847002853D1C8F30808C5F30712F9
S214403150B04488F83020D0E7334483F8305008F144
S214403160010801233371316A01EB58213046244B64
S214403170984700283ED1C8F3080806EB080393F8A2
S214403180303023F00F03C5F303221A43E0E7016A09
S21440319001EB14211A4B984707460028ADD163002F
S2144031A003F4FF73334483F83050C5F3072283F8A3
S2144031B03120A2E7016A01EBD411114B984707462C
S2144031C000289AD1A10001F4FE7101F13003334486
S2144031D0DA781206314402F070422A4381F83020F1
S2144031E0C2F307215970110C9970120EDA7084E7F9
S2144031F0074682E7074680E702273846BDE8F08163
S214403200B52E40002DE9F0410546884641B9C668CE
S21440321086B183699E4228BF01263446274F17E071
S214403220264B9847034601283ED9AA69904240D388
S2144032304646F2E70126F0E721462846B8470346C9
S21440324070B1B0F1FF3F34D0012832D0B4422FD015
S2144032500134AB699C42EFD3012E27D90224EBE719
S2144032606FF0704221462846154B9847034610B9E2
S214403270B8F1000F0BD18BB9EC602B69B3F1FF3F6F
S2144032801AD0013B2B6101236B71234611E0224685
S214403290414628460A4B98470346ECE7012B0CBFAD
S2144032A04FF0FF33012304E0012302E0002300E057
S2144032B000231846BDE8F0812346FAE7452F400034
S2144032C0D130400001292ED92DE9F84304460E4658
S2144032D08369994203D302221046BDE8F883164F0D
S2144032E04FF00009DFF8548003E02E46A369AB4256
S2144032F0F2D931462046B8470546B8B1012817D01E
S214403300B0F1FF3F16D04A4631462046C0470246F7
S2144033100028E1D12369B3F1FF3FE6D001332361B2
S21440332001236371E1E70222104670470022D3E78B
S2144033300222D1E70122CFE7452F4000D13040009E
S2144033402DE9F84FC4880134A4B214B90420BDE86E
S214403350F88F036913B90420BDE8F88F0E4605467A
S21440336014F00F0710D101330361C16831B9036807
S2144033701B89A34208D80420BDE8F88F00688378EC
S214403380013B13EA141308D0EC802B68303303EB70
S21440339047136B610020BDE8F88F324B9847804654
S2144033A001284DD9B0F1FF3F4DD028688369984534
S2144033B03ED316B90420BDE8F88FE9682A4B9847F3
S2144033C0804610B90720BDE8F88F01283ED0B0F1FE
S2144033D0FF3F3ED000212868244B984700283BD129
S2144033E028684FF4007200213030214B98472E68F1
S2144033F0414630461F4B9847F06200264FF0010B7F
S214403400B246DFF868902B689978F2B291420BD9B1
S21440341083F804B051462868C8470136F8B92A6888
S214403420D36A0133D362EEE71646DA6A961BDE624B
S214403430C5F80C80414628680E4B98472861A3E79C
S2144034400220BDE8F88F0120BDE8F88F0220BDE8D5
S214403450F88F0120BDE8F88F0120BDE8F88F0120E5
S214403460BDE8F88F452F400005324000B52E40009D
S2144034703D2A40004B2A40002DE9F04F85B00546D6
S2144034800021614B9847804608BB4FF0FF0BD9465A
S2144034905E4FDA4694E00F2A1DD0B9F1000F04D1F2
S2144034A020465B4B9847824511D04FF6FF732B84DE
S2144034B0AB69DA7A12F0010F79D104F10B0014F8F7
S2144034C0011B13F8012B91426BD18442F7D1404641
S2144034D005B0BDE8F08FD5F81C80B8F1000F68D075
S2144034E016F0400F0CD094F80DA006F0BF06EB88FF
S2144034F02B8494F80DB0D34507D04FF0FF0958E021
S214403500B145F6D04FF0FF0953E094F800A02AF0FA
S214403510400A0AF1FF3A0AEB4A030AEB8303DFF854
S214403520FC9009F10D0A01200396CDF804B01E4622
S21440353002950FE01846374B98478346FE2E5AD8DA
S214403540751C38F81600334B9847834557D12E469E
S214403550D14513D019F8012BA3185978A35C43EA38
S21440356001230028E6D14FF6FF729342F0D0DDF8F3
S21440357004B0029DDA464FF0FF091AE0DDF804B0C9
S2144035803246039E029D237813F0400F04D018B1B4
S21440359038F81230002BEDD1013E5FFA86F9DA4654
S2144035A007E04FF0FF0904E04FF0FF0901E04FF05D
S2144035B0FF0900212846184B98478046002886D1A8
S2144035C029692868B8478046002880D16C692678E3
S2144035D076B1E37A03F03F02E52EE5D013F0080F0C
S2144035E03FF459AF0F2A3FF456AF4FF0FF09E0E7DC
S2144035F04FF004086BE7DDF804B0029DBAE7DDF84B
S21440360004B0029DB6E700BF2D304000B52E400006
S214403610632A4000014340004133400010CE400042
S2144036202DE9F04F89B004468569D0F81CB00C22CD
S214403630294605A8A84B98479DF81F3013F0010F60
S21440364079D00023EB72E3610B2205A92846A24BF2
S214403650984701273B464FF02008DFF89C92DFF85A
S21440366078A232E03B4630E0134602E0002300E01A
S21440367013462B4405E0414603F8011B591B072916
S21440368007D8072AF7D808A9114411F8141C0132A4
S214403690F2E72046C847064600283ED10137BFB26B
S2144036A0642F38D00B2205A92846D047052FD9D9F4
S2144036B03B465946DA0342EA530331F8022B12FAE4
S2144036C083F39BB20A88002AF4D10DF11306072231
S2144036D003F00F0000F13001392988BF00F13701AF
S2144036E0013A06F80119C3F30F13002BF0D17E21DF
S2144036F008AB134403F8141C002AB5D02B78202BB3
S214403700B4D02946002301339A42B1D011F8010FB4
S2144037102028F8D1ADE7072604E0642F00F0AC80FF
S214403720042803D0304609B0BDE8F08F9DF81F301E
S214403730EB72C4F81CB09DF81F3013F0020F14D083
S214403740BBF800307BB1002301339BB23BF813201B
S214403750002AF9D11933614F87FB0327DB17C3EBE8
S214403760A707BFB202E00023F4E701270021204666
S2144037705B4B984706460028D4D14FF0000A554682
S214403780DFF86481D346DFF85C910AE06B1C9BB29D
S2144037909F4273D01D4601212046C8470646002852
S2144037A0C0D121692068C04706460028BAD163695F
S2144037B01B78E52B00D023B9002DE7D1B4F806A03E
S2144037C0E4E75D46E7E7714670E04FF6FF729342E6
S2144037D002D039F811300BB94BF0400B80F800B0EE
S2144037E0236801221A71394620463E4B98470646C2
S2144037F0002897D1013DADB215B3216920683A4BF8
S2144038009847064600288DD1D4F81C9060695FFA28
S21440381085FB9DF8003043730F23C372077387768A
S214403820C7760BF1FF3101EB410301EB83012F4AD1
S21440383002F10D08019B4FF6FF764FF0FF0A38E085
S21440384021692068284B9847064600287FF46AAFCF
S2144038506569202200212846254B98470B22A169FE
S21440386028461D4B9847A369DB7A03F018032B7351
S214403870236801221A7155E7072653E7012BDFD943
S21440388051462046164B9847064600287FF44AAFD6
S214403890A069184B9847009000270197ADE792F82B
S2144038A000E000F80EA086448EF801A001324245A2
S2144038B08BD0B342F3D001F1010E39F811301178B4
S2144038C0435401444FEA132C81F801C0002B7FF487
S2144038D07AAF71463346E9E7292A40004FECC44E9A
S2144038E02D30400041334000B52E400010CE400001
S2144038F03D2A4000632A40007934400070B50446B3
S21440390000212D4B9847034650B92378032B09D006
S214403910002211466078294B9847031C18BF0123A4
S214403920184670BD6379002BF2D00026E66204F19B
S21440393030054FF4007231462846214B98475523B0
S21440394084F82E32AA2384F82F32522384F830305B
S21440395084F83130612384F83230412284F83320B1
S214403960722184F8141284F8151284F8162284F80A
S2144039701732236984F81832C3F3072284F81922D1
S2144039801A0C84F81A221B0E84F81B32E36884F85B
S2144039901C32C3F3072284F81D221A0C84F81E2218
S2144039A01B0E84F81F320123626929466078054D54
S2144039B0A8476671ACE700BFB52E400061294000BD
S2144039C03D2A4000F12840002DE9F04F83B0824662
S2144039D00D460B782F2B0AD05C2B08D00023CAF854
S2144039E008302B781F2B04D9DFF8FCB230E10135C4
S2144039F0F4E700215046B64B984703460022CAF8E3
S214403A0014205AE1002B40F0528127F8022F631C05
S214403A1016F8010F2F2818BF1F281BD95C2819D06D
S214403A20B3F5807F00F043811C464146D8470246A6
S214403A30002800F03C817F28E7D8222800F03C810F
S214403A402A23A44998B29042DCD011F8013F002BBB
S214403A50F8D1DAE71D44202834BF04260026002C7F
S214403A6000F02A816FF00043234409EB430239F803
S214403A701330202B01D02E2B08D1013C00F01C81A6
S214403A8032F8023D202BF8D02E2BF6D067000023CC
S214403A9029F814300B222021DAF818008E4B98476C
S214403AA0B9F80030202B01D02E2B1FD149460023D9
S214403AB0013331F8022F202AFAD02E2AF8D00BB143
S214403AC046F00306023F09EB070239F807102E2995
S214403AD005D0013C03D032F8021D2E29F9D1082228
S214403AE000924FF00008CDF8048004E00023E9E798
S214403AF046F003063B465F1C39F81300002866D0A4
S214403B002028F5D02E2801D1A742F1D1009B984518
S214403B1018D2A74216D07F2831D82B283DD02C2348
S214403B206E499AB2824243D011F8013F002BF8D139
S214403B30A0F141039BB2192B3DD8019B43F00203F1
S214403B4001932DE0009B0B2B0FD0A74218BF46F0E9
S214403B500306A7423BD8019B9B00DBB2019323465A
S214403B600B2200924FF00808C5E746F00306DAF845
S214403B7018301A78E52A32D105221A702CE0002136
S214403B80D8470346002800F09F80554A134413F850
S214403B90800C46F002060028BFD146F003065F20A0
S214403BA0DAF8183003F808003B4608F10108A2E7A7
S214403BB0002BF2D1BCE7A0F161039BB2192BEFD8E2
S214403BC0019B43F001030193203880B2E8E7DAF81E
S214403BD018301A78E52ACFD0009B082B52D0019A8D
S214403BE002F00C030C2B54D002F00302032A50D0F0
S214403BF016F0020F0BD1019A02F00309B9F1010F3A
S214403C0008BF46F01006042B08BF46F00806DAF850
S214403C101830DE725046334B9847DAF81830DA7A66
S214403C200346002838D112F0040F46D1DAF8143093
S214403C30DA7A12F0100F38D0597D1A7D42EA012206
S214403C40D97E9B7E43EA012343EA0243CAF8083002
S214403C502B782F2B01D05C2B05D115F8013F2F2B4D
S214403C60FBD05C2BF9D0DAF81C9028782F2818BFA8
S214403C701F281ED95C281CD0A9F102072E46012415
S214403C80A046D2E6019B4FEA83095FFA89F3019387
S214403C90A5E746F00206ABE704280ED102F0040280
S214403CA0002A14BF0346052307E0052305E0062344
S214403CB003E001351F2804D80623184603B0BDE8A4
S214403CC0F08F00242646CAE646F0020665E700BFA7
S214403CD02D304000A1CE40003D2A4000ADCE4000F1
S214403CE020CE400079344000C1424000072801D928
S214403CF00B207047064B53F820300BB100221A7049
S214403D0009B100230B70024B43F820100020704787
S214403D10A00A40202DE9F041ADF50E7D0546019103
S214403D2016460023036002F01F0702F01E0285A914
S214403D3001A8584B984782AB8B9302AB8C9368B1E3
S214403D4003468A9C16F01C0F58D1002B40F09680F4
S214403D50E37A13F0100F62D004238FE0019985A810
S214403D604D4B984703468A9C34B928B916F01C0F29
S214403D7040F08980062346E016F01C0FE5D0002B65
S214403D803CD1E37A13F0110F7FD116F0040F7ED1A9
S214403D9017F0080F50D0414B9847A073C0F3072345
S214403DA0E373030C2374000E60740023E3722377DE
S214403DB06377A377E377627D267D46EA0226E17E37
S214403DC0A27E42EA0122A376E37623756375859840
S214403DD00123037152EA06462CD0D0F82C80314697
S214403DE02F4B98470346002848D18598013EC66029
S214403DF041462C4B98470346E0B13FE0042B04D0A5
S214403E0047F008078A9CDBB138E085A8264B9847E0
S214403E1047F008078A9C03460028B9D02EE016F0E3
S214403E20020F04D013F0010F01D0072326E016F04E
S214403E30080F01D047F02007859BDB6AEB612C62B8
S214403E40AF71627D237D43EA0222E17EA37E43EA90
S214403E50012343EA02432B61E27FA37F1B0443EA2C
S214403E600263227F1343627F43EA0223EB60002310
S214403E70AB60AB61859A2A60D288AA8018460DF559
S214403E800E7DBDE8F0810623BAE70723F6E7082350
S214403E90F4E700BF452B4000C9394000D129400017
S214403EA0C5324000B52E4000213640002DE9F04F87
S214403EB083B004468946164698460023C8F8003024
S214403EC081880068754B98470190002840F0E28052
S214403ED0A37913F0800F40F0DB8013F0020F02D17D
S214403EE007230193D6E0E368F3420ED2002E74D146
S214403EF00BE000216A4B98470346206103E0616966
S214403F00674B98470346002B7AD1A368E2689342F2
S214403F1088BFE360A37943F02003A371BAE0A37996
S214403F2063F07F03A37102230193B3E0A37963F0A8
S214403F307F03A37101230193ACE00021594B9847BE
S214403F40002868D0A37963F07F03A371012301930F
S214403F50A0E0A37963F07F03A3710223019399E065
S214403F60A37963F07F03A3710123019392E04FF49A
S214403F70007209EB412130304B4B984723680022B2
S214403F801A716CE0A268E3689A426BD2A561A56894
S214403F90C5F30805C5F50075B54228BF3546A16985
S214403FA02068404B984700286BD1A068C0F30800B3
S214403FB0303023682A46494618443B4B9847236886
S214403FC001221A71A944A3682B44A360D8F8003094
S214403FD02B44C8F80030761B97D0A268C2F308037B
S214403FE0002BD4D120688378013B03EA522313F098
S214403FF0FF070BD1002A82D12369002B3FF479AF0B
S214404000012B8CD0B3F1FF3F90D063612068C26A29
S214404010A3699A4291D0D4F800A061695046234BD8
S21440402098470546002894D03D445FEA562BA9D0D1
S2144040309AF8023007EB0B029A4288BFA3EB070BB5
S2144040405FFA8BF32A4649469AF80100184FB8475C
S214404050002885D12068C16A491B8B4587D84FEA1E
S2144040604B25AFE7002150460E4B984710B92368C2
S214404070DD628BE7A37963F07F03A371012301938D
S21440408008E0A37963F07F03A3710123019301E065
S21440409002230193019803B0BDE8F08F812A4000C7
S2144040A005324000B52E4000292A40004B2A4000E9
S2144040B0F128400038B50446818800681F4B984771
S2144040C0034618B9A27912F0200F01D1184638BD20
S2144040D0E16920681A4B984703460028F6D1256ABE
S2144040E0EB7A43F02003EB72E3682B77A3891B0A35
S2144040F06B77E389AB77E37BEB772369AB76238AF1
S2144041001B0AEB76638A2B75638A1B0A6B750D4B0D
S2144041109847A875C0F30723EB75030C2B76000E63
S2144041206876A37923F02003A371236801221A71CD
S2144041302068054B98470346C8E700BF812A4000E1
S214404140B52E4000D1294000FD38400010B5044649
S214404150034B9847034608B900222260184610BD14
S214404160B54040002DE9F84304460D468188006876
S2144041704F4B98470746002840F09680A37913F0A7
S214404180800F40F09080E268AA4204D203F0020317
S214404190002B08BF1546A3680022A260002D00F041
S2144041A083802068867876026BB1013B6A1EB2FB3C
S2144041B0F6F2B3FBF6F18A4205D372421340A3608F
S2144041C0ED1A616902E0216949B16161002959D05F
S2144041D0B54237D9DFF8DC90DFF8E08028E0354B91
S2144041E098470146012804D0B0F1FF3F07D0206130
S2144041F0EBE7A37963F07F03A371022754E0A3792A
S21440420063F07F03A37101274EE02068C047014654
S214404210B1F1FF3F26D001292AD923689B699942EC
S21440422026D26161A3683344A360AD1BAE4209D277
S214404230A37913F0020FE8D02068C847014600284B
S214404240E6D13546A3682B44A360C5F30803C3B143
S2144042502068194B984788B9A37963F07F03A37108
S214404260022721E0A37963F07F03A37101271BE0B7
S214404270A37963F07F03A371022715E000EB552175
S21440428000E00021A368C3F308021AB1A269914274
S21440429018BFA161E268934206D9E360A37943F070
S2144042A02003A37100E002273846BDE8F88300BF2C
S2144042B0812A4000053240004B2A4000452F4000EE
S2144042C07F2819D971B9C72813D00C4A012332F870
S2144042D0021F814203D001339BB2802BF7D180333B
S2144042E0D8B27047FF2806D88038044B33F8100001
S2144042F070470023F3E70020704700BFB4CE40006D
S21440430061280ED008490022013231F8023F83422C
S21440431001D0002BF8D11BB1044B33F81200704784
S21440432070470022F8E700BFB4CF400094D1400069
S21440433000F1080343604FF0FF328260C3600361C0
S21440434000230360704700230361704743684B6057
S2144043509A688A609A685160996008610368013378
S2144043600360704730B40D68B5F1FF3F02D000F1EE
S214404370080202E0026904E01A4653681C68A54237
S214404380FAD253684B6099608A605160086103684E
S2144043900133036030BC70470369426881689160AE
S2144043A08268416851605A68904205D00022026196
S2144043B0186801381860704782685A60F6E700004F
S2144043C00D4B1B68B3F1FF3F0AD04FF0800372B627
S2144043D083F31188BFF36F8FBFF34F8F62B6FEE74C
S2144043E04FF0800372B683F31188BFF36F8FBFF32D
S2144043F04F8F62B6FEE700BF380040200648006890
S214404400006880F3088862B661B6BFF34F8FBFF38B
S2144044106F8F00DF00BF000008ED00E0DFF80C0003
S214404420016841F4700101607047000088ED00E0CB
S2144044304FF0807340F8043C40F8081C054B40F8A9
S2144044400C3C40F8202C6FF0020340F8243C4438E3
S214404450704700BFC14340004FF0800372B683F3FD
S2144044601188BFF36F8FBFF34F8F62B60B4A136846
S21440447001331360012B0FD1094B1B6813F0FF0F5C
S2144044800AD04FF0800372B683F31188BFF36F8F64
S214404490BFF34F8F62B6FEE7704700BF380040203C
S2144044A004ED00E00A4B1B6853B94FF0800372B628
S2144044B083F31188BFF36F8FBFF34F8F62B6FEE76B
S2144044C0013B034A13600BB983F31188704700BF62
S2144044D038004020034A044B1A600722043B1A6007
S2144044E0704700BFBF27090014E000E000B583B066
S2144044F0254B1A78D2B20192FF221A701B78DBB293
S2144045008DF803309DF8033003F080031F4A137084
S21440451007221F4B1A609DF8033013F0800F10D00F
S214404520062200E00A469DF803305B00DBB28DF8B9
S21440453003309DF80330511E13F0800FF2D1144B18
S2144045401A60134A13681B0203F4E0631360019B6E
S214404550DBB20D4A13700F4B1A6842F460021A60C1
S2144045601A6842F060421A600B4B984700220B4B89
S2144045701A600B4B98470B4A136843F0404313604E
S214404580094B9847094B984700E400E0C20A402090
S214404590C40A402020ED00E0D544400038004020CA
S2144045A01D44400034EF00E0FD434000C14340005E
S2144045B0EFF305830F2B11D9124A9B5CDBB2124AEC
S2144045C012789A420AD94FF0800372B683F3118864
S2144045D0BFF36F8FBFF34F8F62B6FEE70B4B1B6880
S2144045E003F4E0630A4A126893420AD94FF0800304
S2144045F072B683F31188BFF36F8FBFF34F8F62B6E7
S214404600FEE77047F0E300E0C20A40200CED00E011
S214404610C40A402038B5044610F0070F02D020F0F8
S21440462007040834114B9847114B1B6893B1114B44
S2144046301B681C44A34213D24BF2F77294420FD825
S2144046400B4A15681D440B4B1C600B4B98474DB1ED
S214404650284638BD094B23F00703054A1360E6E7B2
S214404660054B9847064B98470025F1E71152400006
S214404670C80A4020CCC2402079534000D40A40208B
S214404680CB66400050B14FF0800372B683F311887A
S214404690BFF36F8FBFF34F8F62B6FEE770470000E1
S2144046A038B504461546026C5AB90368002B2ED11D
S2144046B040681B4B984700236360A36B0133A3639A
S2144046C038BD6DB98068174B9847A368226C134471
S2144046D0A360626893421CD32368A3600020ECE783
S2144046E0C068104B9847236C5B42E2681A44E2600D
S2144046F021688A4202D262681344E360022D0AD1DE
S214404700A36B53B1A36B013BA3630020D5E7002006
S214404710D3E70020D1E70020CFE70020CDE700BF59
S214404720F15840009169400030B583B00190446D27
S21440473074B1A26BE36B9A4215D34FF0800372B606
S21440474083F31188BFF36F8FBFF34F8F62B6FEE7D8
S2144047504FF0800372B683F31188BFF36F8FBFF3B9
S2144047604F8F62B6FEE7A26B934203D800252846D9
S21440477003B030BD0A4601A920460B4B9847054674
S214404780A36CB3F1FF3F0AD1636A002BEFD004F16C
S2144047902400064B9847002818BF0125E7E7A36C7E
S2144047A00133A364E3E700BFA1464000C55640007E
S2144047B0026C72B110B50346C4681444C4604068C5
S2144047C0844201D31868D8600846D968014B984798
S2144047D010BD704791694000F8B50446224B984793
S2144047E0A36C002B1BDD214D214F224E0BE0636A4C
S2144047F0ABB104F12400B04778B9A36C013BA36485
S214404800A36C002B0BDD636D002BF0D000212046FF
S214404810A8470128F1D1B847EFE7B847EDE74FF092
S214404820FF33A364144B98470F4B9847636C002B99
S21440483014DD236993B104F110060E4D0C4F07E0CA
S214404840636C013B6364636C002B07DD23692BB10B
S2144048503046A8470028F3D0B847F1E74FF0FF337B
S2144048606364054B9847F8BD5944400029474000CB
S21440487021584000C5564000A544400038B508B30E
S21440488004460D461D4B98472268216CE36B03FB9C
S21440489001F3D01860600020A063A2605B1A134446
S2144048A0E3604FF0FF336364A364FDB923692BB123
S2144048B004F11000124B984701280ED0114B984730
S2144048C0012038BD4FF0800372B683F31188BFF3E2
S2144048D06F8FBFF34F8F62B6FEE74FF080520A4BA2
S2144048E01A60BFF34F8FBFF36F8FE7E704F11000F6
S2144048F0064DA84704F12400A847DFE75944400086
S214404900C5564000A544400004ED00E03143400059
S214404910F8B550B94FF0800372B683F31188BFF3F1
S2144049206F8FBFF34F8F62B6FEE7064617460D46BB
S21440493089B101FB00F05930124B98470446E8B95C
S2144049404FF0800372B683F31188BFF36F8FBFF3C7
S2144049504F8F62B6FEE758200A4B98470446002819
S214404960EED02060E663256401212046064B98473A
S21440497084F85070002363652046F8BD00F1580364
S2144049800360EFE7154640007D4840002DE9F04FB4
S21440499085B00192B8B1044601B3022B2CD01D4617
S2144049A08846664B9847002834D1019B002B38D068
S2144049B04FF0800372B683F31188BFF36F8FBFF357
S2144049C04F8F62B6FEE74FF0800372B683F31188CE
S2144049D0BFF36F8FBFF34F8F62B6FEE7026C002ABD
S2144049E0DBD04FF0800372B683F31188BFF36F8F2E
S2144049F0BFF34F8F62B6FEE7E26B012ACFD04FF08F
S214404A00800372B683F31188BFF36F8FBFF34F8F67
S214404A1062B6FEE700274A4EDFF850A1DFF82C9139
S214404A2042E00027F7E72A4641462046454B98474E
S214404A30636D9BB129462046434B9847012807D1D2
S214404A404FF08052414B1A60BFF34F8FBFF36F8FCA
S214404A503F4B9847012005B0BDE8F08F636A73B1BD
S214404A6004F124003B4B98470128F1D14FF0805287
S214404A70364B1A60BFF34F8FBFF36F8FE8E70028BF
S214404A80E6D04FF08052314B1A60BFF34F8FBFF3E2
S214404A906F8FDDE72E4B98470020DCE720462E4BF5
S214404AA098472E4B98470127B047A26BE36B9A4234
S214404AB0B9D3022DB7D0019B002BEBD00FB902A87B
S214404AC0D047234B9847264B9847B047636CB3F183
S214404AD0FF3F01D100236364A36CB3F1FF3F01D1D4
S214404AE00023A3641A4B984701A902A81D4B984778
S214404AF0E0B9B047D4F838B0E76B154B9847BB459C
S214404B00CCD1019904F11000174B98472046124B20
S214404B109847124B98470028C5D14FF08053C9F8A4
S214404B200030BFF34F8FBFF36F8FBCE720460A4B72
S214404B3098470A4B984700208DE700BF2D58400005
S214404B4059444000A14640002947400004ED00E09B
S214404B50A5444000C5564000D94740007953400020
S214404B60115240008D574000C15540005D574000EF
S214404B70002836D02DE9F041044600293CD0022BCF
S214404B8048D01E4615468846354B9847EFF3118762
S214404B904FF0800372B683F31188BFF36F8FBFF375
S214404BA04F8F62B6A26BE36B9A4201D3022E4FD16F
S214404BB03246414620462B4B9847A36CB3F1FF3F05
S214404BC041D1636D002B33D031462046264B984763
S214404BD0002D3FD001283DD1286087F31188BDE8DD
S214404BE0F0814FF0800372B683F31188BFF36F8F66
S214404BF0BFF34F8F62B6FEE7006C0028BFD04FF081
S214404C00800372B683F31188BFF36F8FBFF34F8F65
S214404C1062B6FEE7E06B0128B3D04FF0800372B671
S214404C2083F31188BFF36F8FBFF34F8F62B6FEE7F3
S214404C30636A8BB104F124000C4B984775B168B198
S214404C4001202860C9E7A36C0133A3640120C4E7B0
S214404C500020C2E70120C0E70120BEE70120BCE7F4
S214404C60B1454000A146400029474000C556400097
S214404C702DE9F04784B0019298B10446E1B19846D8
S214404C800F46614B984728BB019B53B34FF08003B8
S214404C9072B683F31188BFF36F8FBFF34F8F62B640
S214404CA0FEE74FF0800372B683F31188BFF36F8F31
S214404CB0BFF34F8F62B6FEE7026C002ADFD04FF09C
S214404CC0800372B683F31188BFF36F8FBFF34F8FA5
S214404CD062B6FEE700264D4DDFF860A1DFF83C9156
S214404CE04BE00026F7E7E56839462046484B9847AC
S214404CF0B8F1000F1DD1A36B013BA363236813B922
S214404D00444B9847606023696BB104F11000424BF6
S214404D109847012807D14FF08052404B1A60BFF3A6
S214404D204F8FBFF36F8F3E4B9847012004B0BDE8CE
S214404D30F087E560636A002BF5D004F12400364B1B
S214404D4098470028EFD04FF08052344B1A60BFF39C
S214404D504F8FBFF36F8FE6E7314B98470020E5E76C
S214404D60A84760682F4B98472D4B984730E0204621
S214404D702D4B98472D4B98470126A847A36B002BF1
S214404D80B1D1019B002BE7D00EB902A8D047244BE7
S214404D909847274B9847A847636CB3F1FF3F01D12C
S214404DA000236364A36CB3F1FF3F01D10023A364E7
S214404DB01B4B984701A902A81E4B9847E8B9A8473D
S214404DC0A66B174B9847002ED1D12368002BC7D02F
S214404DD0019904F12400184B98472046124B9847F7
S214404DE0124B98470028C7D14FF08053C9F800307F
S214404DF0BFF34F8FBFF36F8FBEE720460A4B9847EF
S214404E000A4B9847002091E72D58400059444000EF
S214404E10B1474000AD594000C556400004ED00E0A3
S214404E20A54440004D584000D947400079534000C3
S214404E30115240008D574000C15540005D5740001C
S214404E4010B40B4B1B6853B10123094C54F8332064
S214404E5032B10133082BF9D15DF8044B704700237B
S214404E60034A42F8331002EBC3035860F4E700BF2E
S214404E704CC4402070B504460D4616460F4B984726
S214404E80636CB3F1FF3F0BD0A36CB3F1FF3F0AD086
S214404E900B4B9847A36B4BB120460A4B984770BDC7
S214404EA000236364F0E70023A364F1E73246294613
S214404EB004F12400044B9847EEE700BF59444000F5
S214404EC0A5444000D947400045564000084B1B6863
S214404ED01B683BB1064B1B68DB68DB685A68054BB2
S214404EE01A6070474FF0FF32024B1A60704700BF9F
S214404EF0D4C2402080C3402010B50F4B1B6858607A
S214404F000E4B1B6898420ED304460D4B18680A4B4E
S214404F10196804310B4B98470B4B1B689C4201D2D7
S214404F20094B1C6010BD094B1868034B19680431C7
S214404F30044B984710BD00BFD0C24020C8C3402095
S214404F40D4C240206543400080C34020D8C24020A1
S214404F502DE9F04F83B00C9DDDF834A00E9E60B175
S214404F60042D15D94FF0800372B683F31188BFF332
S214404F706F8FBFF34F8F62B6FEE74FF0800372B677
S214404F8083F31188BFF36F8FBFF34F8F62B6FEE790
S214404F900190984691460F4636B99000624B984726
S214404FA00646002800F09E8058205F4B98470446EF
S214404FB0002800F0948006634FEA8902A521304617
S214404FC05A4B98476FF040464E44236B03EB86039C
S214404FD023F007063B7884F834303B78002B40F0CB
S214404FE08480002784F83D70E562A564E76404F198
S214404FF004094846DFF884B1D84704F11800D8477A
S2144050002461C5F10503A3616462276584F8547082
S214405010424601993046464B98472060BAF1000F09
S21440502001D0CAF80040434B9847434A13680133BF
S2144050301360424B1B68002B66D1404B1C601368C4
S214405040012B21D13E4F38463E4EB04707F1140063
S214405050B04707F12800B04707F13C00B04707F1DA
S2144050605000B047DFF818814046B047364F3846C4
S214405070B0473648B0473648B0473648B047364B14
S214405080C3F80080354B1F60354A13680133136000
S2144050902364E06A334A1168012383400B4313605C
S2144050A000EB80004946264B03EB80002E4B98478A
S2144050B02E4B98472E4B1B68002B31D01F4B1B683E
S2144050C0DB6A9D422ED94FF080522A4B1A60BFF3BE
S2144050D04F8FBFF36F8F012003B0BDE8F08F30468F
S2144050E0254B98474FF0FF30F6E73B4604F1340235
S2144050F00937597802F8011F13F8011F00293FF4B9
S21440510070AFBB42F5D16CE7194B1B68002BBBD187
S2144051100A4B1B68DB6A9D42B6D3084B1C60B3E75C
S2144051200120D9E70120D7E715464000C56A400070
S214405130314440005944400040C34020D0C2402043
S214405140DCC24020314340006CC3402088C340202E
S214405150B4C34020A0C34020D4C24020D8C2402080
S2144051604CC3402054C340204D434000A54440001B
S2144051709CC3402004ED00E0854640004743400085
S21440518058C3402010B584B0002303930293019384
S2144051900093822216491748174CA04701280BD087
S2144051A020BB4FF0800372B683F31188BFF36F8F36
S2144051B0BFF34F8F62B6FEE7104B98470128EFD1FA
S2144051C04FF0800372B683F31188BFF36F8FBFF33F
S2144051D04F8F62B64FF0FF32094B1A600122094BDF
S2144051E01A600022084B1A60084B984704B010BD5E
S2144051F074D3400029554000514F4000995A400012
S21440520080C340209CC34020C8C34020ED4440009B
S214405210024A136801331360704700BF48C34020FA
S214405220014B1868704700BFC8C340202DE9F047BF
S214405230424B1B68002B78D1414B1A6801321A60EA
S2144052401E68D6B93F4B1B681B6853B14FF08003AE
S21440525072B683F31188BFF36F8FBFF34F8F62B67A
S214405260FEE7384A1168384B186810601960374AAC
S214405270136801331360364B9847364B1B689E4283
S21440528018D20024344B1B68DB6A03EB8303334A93
S21440529052F82330022B28BF0124314B1B680BB930
S2144052A0304B9847304B1B68002B0CBF20460120E4
S2144052B0BDE8F0870024DFF88C90DFF8B8802B4FED
S2144052C01FE04FF0FF32234B1A60DBE7214A1360A2
S2144052D0D8E705F11800C047E86A3A6801238340DA
S2144052E013433B6000EB800051461C4B03EB8000B1
S2144052F01F4B9847184B1B68EA6ADB6A9A4228BFDE
S2144053000124D9F800301B68002BDAD0D9F80030D9
S214405310DB68DD686B689E42D8D305F1040A5046C8
S214405320C047AB6A002BD4D1D6E70D4A1368013389
S21440533013600C4B98470024B4E700BF48C3402096
S214405340C8C34020D4C24020D8C2402084C3402096
S214405350CD4E400080C34020D0C24020DCC240201A
S21440536044C34020C9664000CCC3402054C34020BC
S2144053704D434000994340002DE9F843384B1B68A5
S21440538053B94FF0800372B683F31188BFF36F8F23
S214405390BFF34F8F62B6FEE7324B9847304B1A68E2
S2144053A0013A1A601B68002B55D12F4B1B68002B07
S2144053B032D100242D4B98472046BDE8F883FB6841
S2144053C0DC6804F11800B04704F104084046B047D2
S2144053D0E06A2A680123834013432B6000EB800079
S2144053E0414609EB8000224B9847224B1B68E26AF5
S2144053F0DB6A9A420CD23B68002BE0D11E4B1B68FE
S214405400DBB11D4B1B68C3B11C4E1D4D1A4C0EE044
S21440541001221B4B1A60EEE71A4F1B4E1B4DDFF85E
S2144054207490E8E72368013B236023682BB1B047BC
S2144054300028F7D001232B60F4E7114B1B68012BA3
S2144054400BD14FF08052124B1A60BFF34F8FBFF311
S2144054506F8F0124AEE70024ACE70024AAE700BF24
S21440546048C340205944400040C34020A544400023
S2144054704D434000D0C2402044C340202D524000FF
S214405480CCC3402088C340209943400054C34020AA
S21440549004ED00E0DCC2402010B5002829D00446C8
S2144054A0184B1B6853B14FF0800372B683F31188D4
S2144054B0BFF36F8FBFF34F8F62B6FEE7124B98472E
S2144054C0124B1B681C44124B18680430114B98470B
S2144054D048B90F4B1A6810490B68D06A01228240BF
S2144054E023EA02030B6020460C4B98470C4B984728
S2144054F038B94FF080520B4B1A60BFF34F8FBFF353
S2144055006F8F10BD48C3402011524000C8C3402092
S214405510D0C240209943400054C34020F94E40003A
S2144055207953400004ED00E080B5DFF88880194EDE
S214405530DFF884902AE0184B1B68012B1ED82B6896
S214405540002BF8D0C0473468B847002CF7D0134B30
S2144055509847F368DC68201D114B9847114A13683A
S214405560013B13602B68013B2B600F4B9847206B29
S214405570DFF848A0D0472046D047E0E74FF08053BA
S214405580C9F80030BFF34F8FBFF36F8F074D084FFA
S214405590D5E700BFB4C34020DCC240205944400099
S2144055A09943400040C34020A544400050C340209B
S2144055B0795340001152400004ED00E0854640001B
S2144055C038B5E0B10C46174D29681831164B984748
S2144055D028680430154B984740B92A6814490B6828
S2144055E0D06A0122824023EA02030B60B4F1FF3FF7
S2144055F010D0104B186820440F4B984738BD4FF0DA
S214405600800372B683F31188BFF36F8FBFF34F8F5B
S21440561062B6FEE7034B196804310848084B9847C2
S21440562038BD00BFD0C2402065434000994340008B
S21440563054C34020C8C34020F94E4000A0C3402079
S2144056404D434000E8B170B515460C46164E3168DD
S2144056501831164B984730680430154B984740B978
S214405660326814490B68D06A0122824023EA02035A
S2144056700B60012D10D0104B186820440F4B9847F4
S21440568070BD4FF0800372B683F31188BFF36F8FFF
S214405690BFF34F8F62B6FEE7034B196804310848E4
S2144056A0024B984770BD00BFD0C240204D434000DB
S2144056B09943400054C34020C8C34020F94E4000A0
S2144056C0A0C3402038B5C368DC6824B304F118058D
S2144056D028461A4B98471A4B1B683BBB251D284645
S2144056E0164B9847E06A174A1168012383400B43DC
S2144056F0136000EB80002946134B03EB8000134BEE
S2144057009847134B1B68E26ADB6A9A4213D901201A
S214405710104B186038BD4FF0800372B683F3118883
S214405720BFF36F8FBFF34F8F62B6FEE729460A4836
S214405730064B9847E5E7002038BD00BF9943400038
S21440574048C3402054C34020DCC240204D43400064
S214405750D0C24020CCC3402088C3402030B1094A44
S21440576012680260084A1268426070474FF0800331
S21440577072B683F31188BFF36F8FBFF34F8F62B655
S214405780FEE700BF84C34020C8C3402038B5C0B140
S214405790044609B30D461D4B98471D4B1A682B68A7
S2144057A0B3F1FF3F2ED01B4909682068884202D0DB
S2144057B061688A4228D26168501A834217D8012409
S2144057C01CE04FF0800372B683F31188BFF36F8FEF
S2144057D0BFF34F8F62B6FEE74FF0800372B683F397
S2144057E01188BFF36F8FBFF34F8F62B6FEE79B1AE9
S2144057F00B442B602046084B98470024074B98479D
S214405800204638BD0024F9E70124F7E75944400014
S214405810C8C3402084C340205D574000A544400094
S2144058200122014B1A607047CCC34020054B1B68D1
S21440583033B1054B1B68002B0CBF0220002070477D
S214405840012070479CC3402048C34020002844D0D5
S21440585038B50446C26A21490968C96A8A4214D2E0
S2144058608169002905DB1D490968C96AC1F105013E
S214405870816102EB82021A4901EB82026169914220
S21440588004D0164A1268D26AE26238BD251D284600
S214405890144B984770B9E36A03EB8301104A52F8F9
S2144058A021203AB910480268012101FA03F322EA9E
S2144058B003030360094B1B68D86AE0620A4A116812
S2144058C0012383400B43136000EB80002946044BC2
