:020000040040BA
:10000000282B4020DD234000DB234000DB23400081
:10001000DB234000DB234000DB2340000000000026
:10002000000000000000000000000000DB23400092
:10003000DB23400000000000DB234000DB23400006
:10004000DB234000DB234000DB234000DB234000B8
:10005000DB234000DB234000DB234000DB234000A8
:10006000DB23400000000000951D4000A91D40005A
:10007000BD1D4000DB234000DB234000DB234000AC
:10008000D11D4000E51D4000DB234000DB23400084
:10009000DB234000DB234000DB234000DB23400068
:1000A000DB234000DB234000DB234000DB23400058
:1000B000DB234000DB234000DB234000DB23400048
:1000C000DB234000DB234000DB234000DB23400038
:1000D00000000000DB23400000000000DB234000A4
:1000E000DB234000DB234000DB234000DB23400018
:1000F000DB234000DB234000DB234000DB23400008
:10010000DB234000DB234000DB234000DB234000F7
:10011000DB234000000000000000000000000000A1
:10012000DB234000DB234000DB234000DB234000D7
:10013000DB23400000000000DB234000DB23400005
:1001400010B5054C237833B9044B13B10448AFF311
:1001500000800123237010BDE8094020000000004A
:100160007C8240000C4B43B10C480D4910B5AFF3F5
:1001700000800C48036823B910BD0A48036833B9EE
:100180007047094B002BF7D0BDE810401847064BCD
:10019000002BF5D0184700BF000000007C82400013
:1001A000EC0940207C8240000000000010B5074BA5
:1001B000196891F82230003318BF01234A7C09687E
:1001C00003480078034CA04710BD00BF040A40203C
:1001D0000D0A40202516400008B104207047324B1C
:1001E0009A68324B03EB52135B02D96B02F01F0289
:1001F000012303FA02F20A4210D02B4B9B7B012B06
:1002000004D00422284B9A7302207047284B1B7895
:10021000002BF6D00022274B1A60F2E710B5224BD4
:100220009B7B042B05D0012B19D0032B2CD1032051
:1002300010BD01221C4B9A731E4B1B683BB91C4B13
:100240001A701C4B1C4959601A60022010BD002214
:10025000174B1A7019481A4B9847022010BD144BBF
:100260001B783BB1134B1B6813F4803F1AD000225C
:10027000104B1A600C4B02229A73124A1A60012228
:100280005A74002283F8222000220F4B1A70064C69
:100290000E4B1C600E4B9847A07B022814BF002019
:1002A000012010BD022010BD0C00402007072000D7
:1002B0000C0A402010E000E060343C026BAF030306
:1002C00001004020801A06000D0A4020040A402048
:1002D000AD01400038B5049C520242EAC36242EAD2
:1002E000017242EAC0722178114341F23430054B69
:1002F0009847054608B9284638BD034B98472070F3
:10030000F9E700BF0D1740003117400010B5094B49
:100310001B689989090441F60930074B9847044640
:1003200008B9204610BD034B18681230034B98479C
:10033000F7E700BF040A40200D17400039174000BE
:1003400008B5044B1B7803B108BD0020024B984749
:10035000FAE700BF0D0A4020E916400008B510205A
:10036000054B98470422054B9A73FF22044B1A70E1
:10037000044B984708BD00BF191F40000C004020E7
:100380000D0A4020E91540002DE9F04395B0A74B38
:1003900098470446012805D0A54B9847204615B03C
:1003A000BDE8F08314AE082306F8453DA14B1B6859
:1003B0000127DF7300251D749D819F4B9847009690
:1003C0002B460622294638469C4EB04729464FF414
:1003D00080409B4B984730B9964B1B6803249C7315
:1003E000934B9847DAE74FF4D57145F20850944B98
:1003F0009847002840F093804FF00009002144F214
:1004000005508F4B9847002840F09780894B1B6818
:10041000DB7B13F0010F40F0B580002145F20310A3
:10042000874B98470028D7D0824D2E68854B984738
:10043000000CB0812B68DB7B13F0010F34D0824BB2
:1004400098470028C8D02B685A7DC2F3C30002F039
:1004500007027E4951F822104FF47A7202FB01F232
:100460007B4951F8201002FB01F21A609A7C920934
:1004700040F00C82997E587E1A7E920242EA8002F7
:1004800042EAA112187FD97E490041EAE011C2F385
:100490000B02013201F0070102318A40D97D01F0DF
:1004A0000F018A40920A5A60624B1B6899890904BD
:1004B00043F20710624B984700288DD05D4B1B68B4
:1004C000DA7B12F0010F40F0EE815A4B1B68DB7BA8
:1004D00013F0040F00F09D8209250027574EA5F167
:1004E000090303AA134400933B462A46394638467B
:1004F000B04701350D2DF2D19DF80D309DF80C90CF
:1005000009EB03299DF80E3009EB03499DF80F30E4
:1005100009EB03694E464FF00008484F3AE2494B59
:100520009847B0F1FF3F00F04A83C0F30B00B0F5ED
:10053000D57F7FF451AFB94660E7424B984710F042
:10054000E04F3FF463AF41F2893544F205583C4E29
:100550003C4F00F4FC114046B04700283FF43CAF4C
:10056000B847002802DB013DF3D135E710F0006FFA
:1005700004D1304B1B680422DA734EE72D4B1B6805
:100580000522DA73B9F1000F324F14BFB9464FF4A8
:10059000FC1940F635054FF00008294E294F414619
:1005A00041F23710B04748B1494644F22950B047AC
:1005B00020B1B847002820DB013DF0D11D4B1B685E
:1005C0000222DA7300214FF480401D4B9847002827
:1005D0003FF402AF41F26905DFF87880184E194FF9
:1005E000414644F20150B04700283FF4F5AEB84709
:1005F000002831DB013DF3D1EEE610F0804F05D04D
:100600000C4B1A68D37B43F00803D373094B1B6868
:10061000DB7B13F0010F3FF400AF002145F6023001
:10062000074B984700287FF4F8AED5E6D901400083
:1006300041034000040A4020EB164000D502400070
:100640000D174000311740000D034000887840002E
:10065000A478400000801F4000F0C040B0F1804FFF
:1006600027D0002145F60230A54B984700283FF4DB
:10067000B3AEA44B1B6801229A814FF4803141F242
:1006800003109F4B984700283FF4A6AE9E4B984717
:1006900000283FF4A1AE9B4B1A68937CC3F38303FD
:1006A000013B032B0CD8DFE813F0CD00D000D300C2
:1006B000D600944B1A68D37B43F00803D373D0E77A
:1006C00012231374537DC3F3C30003F007038F4950
:1006D00051F823104FF47A7303FB01F38C4951F85E
:1006E000201003FB01F31360917E507E137E9B026A
:1006F00043EA800343EAA113C3F30B0340F6FF71FF
:100700008B420FD0107FD17E490041EAE0110133C6
:1007100001F0070102318B40D17D01F00F018B40C8
:100720009B0A53609189090443F20710744B984760
:1007300000283FF451AE734B1B681B7C3F2B40F2EB
:1007400097800021009101234FF400727148724D8F
:10075000A84700283FF440AE0025704E03A8B047DC
:1007600000283FF439AE0135ADB2322DF6D1039EEB
:1007700006F00206634B1B689A7E597E1B7E9B0225
:1007800043EA810343EAA213C3F30B0340F6FF726B
:1007900093420ED1614F04A8B84700283FF41CAE25
:1007A0000135ADB2352DF6D9564B1A68049B5B085E
:1007B00053605A4F7F2D51D9594B1878594B984750
:1007C00003281DD9564B1878564B984705460428E0
:1007D0004CD0554B5549082818BF194643F206100E
:1007E000474B984700283FF4F7AD514B984710F01E
:1007F000800F7FF4F1AD434B1B685D744D4B984700
:100800004D4B9847BEB1B0B14C4943F206103C4B3A
:10081000984700283FF4E0AD454B984710F0800F13
:100820007FF4DAAD374B1B68012283F82220444A5B
:100830001A60404B98470A254FF4007841F2101790
:100840002F4E1DE0142313743CE72223137439E761
:100850003023137436E74023137433E704A8B847F2
:1008600000283FF4B9AD0135ADB2A3E73549B5E78E
:10087000304B9847DFE7013D15F0FF053FF4ACAD85
:1008800041463846B0470028F5D00EE1D97E987E23
:100890005A7E120442EA00220A43C2F315020132D0
:1008A00052025A6000E69989090441F23710144B4C
:1008B000984700283FF490AD0123009308220021BF
:1008C0002148154DA84700283FF486AD012104A812
:1008D0001E4B984700283FF47FAD1D4B98470028DA
:1008E0003FF47AAD9DF8103003F00F03012B36D0A2
:1008F00083B3022B38D0034B1B6810221A74E4E533
:100900000D174000040A40200D0340008878400085
:10091000487840000811080069174000311840006D
:100920000D0A4020151640000000B7010002B70173
:1009300031174000AD0140001F1640000001B9030F
:10094000007519030001B70133110800A518400014
:100950009D1940009B4B1B6810221A74B5E5994BFA
:100960001B681A221A74B0E59DF81230DB09954B0A
:100970001B6814BF302220221A74A6E59DF811309E
:10098000002B3FF429AD02331E4409F580739E42CB
:100990003FF622AD002504AB2B4400934346721969
:1009A00041464046B8470135032DF4D19DF810303B
:1009B000FF2B3FF411AD222BE0D19DF81230002B1C
:1009C000DCD104AD06F106094FF000087E4F00951A
:1009D0004346324641464046B847013601354E450A
:1009E000F5D19DF81530322B28BF3223754A126895
:1009F000C3F3C30003F00703744951F823104FF405
:100A00007A7303FB01F3724951F8201003FB01F3E1
:100A10001360704B1878704B9847032822D9694BA4
:100A20001B68DB7B13F0040F46D1664B1B68DA7B37
:100A300012F0010F14D09989090441F23710674B65
:100A4000984700283FF4C8AC022141F20610634BDE
:100A5000984700283FF4C0AC5A4B1B6804225A74D4
:100A60005F4B98475F4B984780B1564B1B68DB7BC9
:100A700013F0040F41D1534B1B68DA7B12F0010FC6
:100A800002D01B7C102B5ED8554B98474D4B1B68F2
:100A9000DB7B13F0010F08D04FF4007141F210100E
:100AA0004E4B984700283FF497AC464B1B680022FA
:100AB0009A734D4B984771E404AB009300230822CE
:100AC00019461846404DA84700283FF485AC9DF9CB
:100AD0001030002BA9DA14AB022203F8402D00934A
:100AE0000123072200211846A84700283FF474ACD0
:100AF000344B1B6804225A7497E704AB009300231D
:100B0000132219461846304DA84700283FF464AC1C
:100B10009DF8103013F0010FADD014AB022203F892
:100B2000402D00930123132200211846A8470028D6
:100B30003FF452AC234B1B68012283F822201A6831
:100B400052001A6097E740252A46002104A8274B47
:100B50009847012300932A4625492648264DA84751
:100B600000283FF439AC012104A8244B9847002801
:100B70003FF432AC224B984700283FF42DAC214B78
:100B8000984710F0800F7FF427AC9DF8203003F0D9
:100B90000F030F2B3FF478AF9DF82D309DF82C20DC
:100BA00053EA02237FF418AC174B9847054B1B6898
:100BB000012283F822201A6852001A6064E74FF07D
:100BC00000091BE4040A4020D50240008878400058
:100BD000A47840000D0A4020151640000D17400073
:100BE000AD0140001F164000410340002D49400068
:100BF00001FFFF800611080069174000A51840009A
:100C00009D19400031174000EB16400008B5054B18
:100C1000984708B1002008BD034B9847034B1B6859
:100C2000D87B08BDD901400041034000040A4020A0
:100C300008B5054B984708B1002008BD034B9847FD
:100C4000034B1B68586808BDD901400041034000B0
:100C5000040A4020002070472DE9F04782B08A4600
:100C60009146264B9847804618B1404602B0BDE8F1
:100C7000F087234C234E244D244F3368998909046F
:100C800041F20D10A84728B1B84710F4807F17D162
:100C9000013CF2D11E4B98474FF00508E5E71B4B8E
:100CA00098471C4B034033B91B4BA3F800901B4BD8
:100CB000A3F80090D9E7164B98474FF00508D4E702
:100CC000174B1848B9F1010F98BF18460D4B1B6818
:100CD000DB7B13F0080F01D14FEA4A2A012300936E
:100CE0004B464FF4007251460F4CA0470028D6D116
:100CF000074B98474FF00508B7E700BFD901400000
:100D0000410D0300040A40200D1740003117400038
:100D100041034000000058E4080A40200A0A40202D
:100D200011110800121110006917400010B50C468F
:100D3000064B984720B90022054B1A80052010BDAC
:100D4000034A13881C1B1480002010BDA518400006
:100D5000080A402010B50446134B984708B90520EF
:100D600010BD84B10022114B1A80114B1B88012B3E
:100D70000FD0002143F20C100E4B984768B10E4B78
:100D80009847002010BD094B1B88002BEDD0002098
:100D900010BD094B9847002010BD002143F20C10F4
:100DA000044B9847EBE700BF9D194000080A40201C
:100DB0000A0A40200D1740004103400070B582B080
:100DC0000E461546164B98470446B8B9154B1648BB
:100DD000012D98BF1846154B1B68DB7B13F0080FDD
:100DE00008BF7602012300932B464FF40072314670
:100DF0000F4EB04728B90F4B98470524204602B044
:100E000070BD0D4B98470D4B034023B90C4B1D8013
:100E10000C4B1D80F2E7074B98470524EEE700BF17
:100E2000D90140001891080019911000040A4020CF
:100E3000691740004103400031174000000058E4AA
:100E4000080A40200A0A402010B50C46064B984775
:100E500020B90022054B1A80052010BD034A1388D3
:100E60001C1B1480002010BD011A4000080A4020FD
:100E700010B50446124B984708B9052010BD84B13F
:100E80000022104B1A80104B1B88012B0FD0002121
:100E900043F20C100D4B984768B90D4B984705204D
:100EA00010BD084B1B88002BEDD0002010BD084B57
:100EB0009847002010BD064B9847002010BD00BF8A
:100EC000F91A4000080A40200A0A40200D17400085
:100ED0004103400010B504460F4B9847012818D035
:100EE00018B1022810D0012010BD0C4B1B5D0BB1B6
:100EF000022010BD20460A4B984700F0030000284E
:100F000014BF0020022010BD0022044B1A550220FD
:100F100010BD032010BD00BF89034000100A40200F
:100F20000D0C400008B50020014B984708BD00BFDC
:100F3000D50E400038B504460D46044B9847400096
:100F4000013828602046024B984738BD310C4000DC
:100F5000D50E400008B501460020014B984708BD5A
:100F6000350F400008B50020014B984708BD00BF71
:100F7000550C400010B5144601220A4B984720B189
:100F800002280CBF0220012010BD01212046064B83
:100F9000984708B1012010BD044B9847003018BF96
:100FA000012010BD590C40002D0D4000550D400092
:100FB00008B50A4601460020014B984708BD00BF0E
:100FC000750F400010B5144601220A4B984720B116
:100FD00002280CBF0220012010BD01212046064B33
:100FE000984708B1012010BD044B9847003018BF46
:100FF000012010BDBD0D4000490E4000710E4000A3
:1010000008B50A4601460020014B984708BD00BFBD
:10101000C50F400010B51048104B98473E210020E6
:101020000F4B98470F4CA0470028FCD00E4B984719
:101030000E4A0F4B9A620F4CA0470028FCD00220AA
:101040000D4B984700200D4B98470D4B9847024891
:10105000024B984710BD00BF00A3E111B12540002D
:10106000951E4000E91E4000F91E4000013F182077
:1010700000060E40091F4000F91D4000311E4000CF
:10108000A524400008B10120704708B5014B9847DE
:1010900008BD00BF250F400008B10120704708B50A
:1010A0000846014B984708BD550F4000B0FA80F044
:1010B0004009704708B10120704708B5014B9847B7
:1010C00008BD00BF650F400008B10120704708B59A
:1010D00008461146014B984708BD00BFB10F4000BC
:1010E00008B10120704708B508461146014B9847E2
:1010F00008BD00BF011040002DE9F04180B90C4649
:101100009046002A0FDD8F18084E094D30682146A1
:101110002B6898470134BC42F8D14046BDE8F081C5
:101120004FF0FF38F9E78046F7E700BFF80A4020A4
:10113000F00A40200138022815D82DE9F0410E466A
:1011400014469AB10D46DFF838800C4FD8F80000ED
:1011500015F8011B3B68984700280ADBA81B013CD7
:10116000F4D1BDE8F0814FF0FF3070471046BDE884
:10117000F0814FF0FF30BDE8F08100BFF40A40205D
:10118000F80A4020F8B54FF40042B84B5A60BFF35C
:101190005F8FB74F3846B74DA847B74E40EA0601B4
:1011A0001120B64CA047B648A847B6490143B648F7
:1011B000A0473846A84740EA0601B448A047B448CB
:1011C000A84706F1087606F5403640EA0601B14820
:1011D000A047B148A84740EA0601B048A0476FF0D1
:1011E0006040A847AE4E40EA0601AE48A0476FF007
:1011F0007040A847AC4F40EA0701AC48A0476FF0E9
:101200007040A847AA490143AA48A0476FF0604030
:10121000A84740EA0701A848A047A848A84740EACD
:101220000601A748A047A74C636A43F4E023636222
:101230000520A54B9847BFF34F8FBFF36F8FBFF3C8
:101240004F8FBFF36F8F0023C4F85032636943F4AC
:1012500000336361BFF34F8FBFF36F8FD4F880709B
:10126000C7F34E3607F007000430C7F3C907B7FAD3
:1012700087FE0EF01F0EBFF34F8F4FF0FF3404FABE
:1012800000FC06FA00F004FA0EF407FA0EFE8D4D8B
:101290003A46734640EA0301C5F86012013A234416
:1012A000B2F1FF3FF6D1013E6044B6F1FF3FEFD10E
:1012B000BFF34F8F834B5A6942F480325A61BFF3B8
:1012C0004F8FBFF36F8F814A81495160A1F58071C3
:1012D0005160BFF34F8FBFF36F8FD3F8902222F08E
:1012E0000102C3F89022D3F8942222F00102C3F83D
:1012F0009422BFF34F8FBFF36F8F0A20754CA04726
:101300000B20A0470C20A0471020A0471120A04789
:10131000714A4FF480731361C2F8A03013636F4BAE
:101320004FF400615961C3F8A0105966C3F89010DA
:1013300059651962C3F88410186F20F400601867AB
:10134000586F20F400605867C3F8C010C3F8D41079
:10135000C3F8B0104FF400111966C3F89010596526
:101360005962C3F88010186F20F400101867586F86
:1013700020F40010586759605948D0F8141141F012
:101380001001C0F81411574910200866C1F89000E8
:1013900048654862C1F880000C6F04430C674C6FCD
:1013A00004434C6748604FF080511966C3F89010B1
:1013B00059655962C3F88010186F20F08050186783
:1013C000586F0843586759604FF000711966C3F8A9
:1013D000901059655962C3F88010186F0843186758
:1013E000586F0843586759604FF080411966C3F839
:1013F000901059655962C3F88010186F20F0804032
:101400001867586F0843586759604FF000411966D4
:10141000C3F8901059655962C3F88010186F20F016
:1014200000401867586F0843586759604FF0806153
:101430001966C3F8901059655962C3F88010186F87
:1014400020F080601867586F0843586759604FF064
:1014500000611966C3F8901059655962C3F880108D
:10146000186F20F0006018673EE000BF50180E4073
:10147000FFFF3F00751B400001000001691B400099
:10148000FFFF1F0001002306120040001300002090
:10149000FFFF030014004020FFFF0100150044205F
:1014A0000100011316000040010000031700006056
:1014B000010025031800007019000080FFFF0F00D5
:1014C0001A0010A000ED00E05D1B4000000C0E4073
:1014D0000C08005A191F400000120E40000E0E406A
:1014E0000080084000100E40586F0843586759604C
:1014F0004FF480335361C2F8A0305366C2F8903085
:1015000053655362C2F88030136F23F4803313673E
:10151000536F23F480335367F8BD00BF70B44FF0AE
:1015200080435D689C68D868D9695A6D80261E60C2
:101530005D609C60D860D9615A6500221A650522F9
:101540001A6070BC7047000008B501F03F031843F3
:1015500011F4807F04D011F4006F0ED040F4845059
:1015600011F4804F18BF40F400604FF080431A61BF
:101570005861184601F480520DE011F4005F14BF69
:1015800040F4865040F48250EAE713F41B0F0CD16C
:1015900013F0010F0DD1036C002AF6D013F41F0FC6
:1015A000F6D0104B9847002008BD0E4B98470020FE
:1015B00008BD11F4005F03D1012008BD012008BD62
:1015C0004FF080431B6C4FF0FF324FF0804103F02F
:1015D0003003202BF2D00B6C013AF8D1014B984725
:1015E000002008BD1D15400010B51220084CA04772
:1015F0003A20A0474FF0804372229A60DA611122AC
:101600005A654FF4E0625A6005221A6010BD00BFAF
:10161000191F400000280CBF042000207047012043
:10162000704700007BB34FF08040436D43F48073FC
:1016300043652B4BB3EB410F37D310B42948B0FBB4
:10164000F1F301FB130129BB023B4FF080414868D5
:1016500020F0FF0048604C68C3F347002043486017
:1016600013F0010F18D04B6843F480334B60042A09
:1016700019D0082A0CBFC02200224FF08043DA6044
:101680005DF8044B70474FF08040436D23F4807346
:101690004365CEE7013BD8E74FF080414B6823F428
:1016A00080334B60E3E78022E7E74FF080435968DF
:1016B00021F0FF015960596859604FF080414B6833
:1016C00023F480334B60042A07D0082A0CBFC022C1
:1016D00000224FF08043DA6070478022F9E700BFB4
:1016E0007FD1F00880D1F00870474FF080435A68EE
:1016F00022F460525A6000221A614FF410625A615B
:101700001A46136C13F0010FFBD0704710B54FF061
:1017100080435A6822F460525A6000241C659C6120
:101720000A4601462046014B984710BD4915400026
:101730004FF08043186A704710B4031D14304FF007
:101740008044226A110E03F8041C110C03F8031CD8
:10175000110A03F8021C03F8012C04338342F0D170
:101760005DF8044B7047000070B59DF8104084B3DD
:101770004FF480754FF0804425654FF080456C68CC
:1017800044F4C0546C6012F0030F27D06C6844F42A
:1017900000546C6000F40044002C14BF4FF48034FB
:1017A0004FF4A02410F4803F1FD143EA02454FF0CC
:1017B0008046B56110F4003F2BD110F4802F2BD15F
:1017C00010F4002F18D110F4801F18BF44F4002427
:1017D00012E000254FF080442565CEE74FF08045AC
:1017E0006C6824F400546C60D4E744F40014C2F331
:1017F00008054FF08046B5610026094D2E60094D61
:101800002A80094A13800A4601462046074B98471A
:1018100070BD44F42014EFE744F48014ECE700BFFB
:10182000180A4020120A4020140A4020491540009E
:1018300008B54FF08041164A0B6C13421DD113F0CE
:10184000020FF9D04FF080431B6B0360114A1368FD
:1018500004331360104A1188104A128802FB01F207
:10186000934212D34FF08041094A0B6C134208D1C6
:1018700013F0006FF9D0012008BD094B98470020F4
:1018800008BD074B9847002008BD012008BD00BFD8
:10189000000060C0180A4020120A4020140A4020AC
:1018A0001D1540002DE9F04188B004460D46202268
:1018B00000216846304B98470122304B1A62304B6A
:1018C0001B8805FB03F514F0030F4AD12D4B03933E
:1018D000AB0800934FF08042536823F400535360E9
:1018E000294B019302946A4600212448274B9847CC
:1018F000274BD3F88030C3F34E3703F00700043092
:10190000C3F3C90EBEFA8EFC0CF01F0CBFF34F8F51
:101910004FF0FF3404FA00F807FA00F004FA0CF470
:101920000EFA0CFC1A4E7246634643EA0001C6F8F2
:101930007412013A2344B2F1FF3FF6D1013F404413
:10194000B7F1FF3FEFD1BFF34F8FBFF36F8F012090
:101950000A4BD8610F4A13682B44136008B0BDE8E6
:10196000F0810D4B039300954FF08042536843F490
:1019700000535360B4E700BF2D494000008007408A
:10198000120A402001300400000200409F23400062
:1019900000ED00E0180A40200120040070B5124B51
:1019A0001B88124A128802FB03F2114B1C684FF08D
:1019B00080401049104E09E0104B984701220E4B11
:1019C0001A62002070BD13F0006F0AD1036C0B4245
:1019D000F2D1A242F7D9F56D15F0010FF3D0012035
:1019E00070BD012070BD00BF120A4020140A4020C3
:1019F000180A4020000060C0008007401D1540000C
:101A00002DE9F04188B004460D46202200216846A9
:101A1000304B98470122304B1A62304B1B8805FB34
:101A200003F514F0030F4AD12D4B0393AB08009339
:101A30004FF08042536823F4005353600194294BC4
:101A400002936A4600212448274B9847274BD3F836
:101A50008030C3F34E3703F007000430C3F3C90EE0
:101A6000BEFA8EFC0CF01F0CBFF34F8F4FF0FF340B
:101A700004FA00F807FA00F004FA0CF40EFA0CFC71
:101A80001A4E7246634643EA0001C6F87412013AE0
:101A90002344B2F1FF3FF6D1013F4044B7F1FF3F8D
:101AA000EFD1BFF34F8FBFF36F8F01200A4BD86187
:101AB0000F4A13682B44136008B0BDE8F0810D4B4A
:101AC000039300954FF08042536843F400535360F2
:101AD000B4E700BF2D49400000800740120A4020B3
:101AE00011500100000200409F23400000ED00E083
:101AF000180A40201140010070B5124B1B88124A91
:101B0000128802FB03F2114B1C684FF08040104911
:101B1000104E09E0104B984701220E4B1A6200202C
:101B200070BD13F0006F0AD1036C0B42F2D1A242D8
:101B3000F7D9F56D15F0010FF3D0012070BD01202C
:101B400070BD00BF120A4020140A4020180A40202D
:101B5000000060C0008007401D154000014B586028
:101B6000704700BF90ED00E0014BD86019617047ED
:101B700090ED00E0202809D90423202201335200EF
:101B8000904201D91E2BF9D9580070470423FBE776
:101B900001637047416370474264B1F1C05F3AD05E
:101BA00013D8B1F1006F25D0B1F1805F0AD1036F76
:101BB00013430367436F416F0B4023EA02034367FC
:101BC000426070470029FBD17047B1F1205F21D0FE
:101BD00009D8B1F1005FF3D1036F13430367436F7B
:101BE00013434367ECE7B1F1405F13D0B1F1605F9D
:101BF00010D0E5E710B4016F046FD34321401C46B9
:101C000019400167436F416F0B40234043674260B7
:101C10005DF8044B7047036F016F0B4023EA02032A
:101C20000367436F13434367CAE7416412F0010F30
:101C30000DD1016612F00A0F0BD0016212F0020FF3
:101C400009D112F0080F08D0C0F8841005E04166F1
:101C5000F0E74162F2E7C0F880104161016070472F
:101C600010B4019C41644CB901664BB101654AB99D
:101C70004163016101605DF8044B70474166F4E720
:101C80004165F4E70163F4E7836B0B4214BF012065
:101C90000020704712F0100F12D0C0F8B01012F0F0
:101CA000200F07D0C0F8D41012F0400F05D0C0F8B4
:101CB000C0107047C0F8D010F6E7C0F8C4107047E5
:101CC000C0F8B410704701647047C06C7047806CF6
:101CD000704700002DE9F041044688460E4B9847B6
:101CE000054620460D4B9847054013D00C4C04F197
:101CF000600603E0B4420DD010345DB12068404569
:101D0000F8D161682942F5D0E3689847636825EA0D
:101D10000305EFE7BDE8F081CB1C4000CF1C40007D
:101D20001C0A4020F8B5184C2668062E2AD84FF019
:101D3000000C6446154F04E00134E4B2A446A64208
:101D400009D3A64625017D598D42F5D107EB04152F
:101D50006D689542F0D10D4D4FEA0E1E05EB0E0455
:101D600045F80E106260A3600699E1600136664591
:101D700005D011461A46064B98470020F8BD024987
:101D80000E60F6E70120F8BD8C0A40201C0A4020B6
:101D9000951C400008B50A210148024B984708BD30
:101DA000000E0E40D51C400008B50B210148024B27
:101DB000984708BD00100E40D51C400008B50C2106
:101DC0000148024B984708BD00120E40D51C400048
:101DD00008B510210148024B984708BD00140E4079
:101DE000D51C400008B511210148024B984708BD99
:101DF00000160E40D51C4000032811D0042812D034
:101E000002280CBF4FF480710021084A136B23F4A1
:101E100040730B431363936E13F0080FFBD07047AE
:101E20004FF44071F1E74FF40071EEE700060E4009
:101E3000174A136B23F0700318431063936E13F06B
:101E4000080F0AD14FF4805311498A6E12F0080F1F
:101E500003D1013BF9D1012070470D4A136B23F0E8
:101E6000030343F002031363936E13F0080F0AD1C8
:101E70004FF4805306498A6E12F0080F05D1013BDA
:101E8000F9D101207047002070470020704700BF43
:101E900000060E40A0B90E48036A090289B20D4A35
:101EA0001A400D4B1343194301620246936E13F01F
:101EB000010FFBD0064A116A084B0B4313627047AF
:101EC00003490B6A064A1A40064B13430B627047DC
:101ED00000060E40FCFFC8FF01003700000037017C
:101EE000FCFFC8FE02003701024B986E00F4803000
:101EF000704700BF00060E404FF00052014B9A623F
:101F0000704700BF00060E40024B986E00F00200C2
:101F1000704700BF00060E403F281ED81F280CD86F
:101F2000114B9A6901238340934318D0012303FA8C
:101F300000F00D4B18610020704720380A4BD3F891
:101F400008210123834093430BD0012303FA00F0BF
:101F5000054BC3F8000100207047012070470020A6
:101F600070470020704700BF00060E4030B48568FF
:101F70008468A54203D085688468AC42FBD161B116
:101F8000C4F3015000EB8005C4F3034000EB4500AF
:101F900014F4800F18BF0C30086042B1C4F3023152
:101FA00001EB8101C4F3032000EB4101116043B157
:101FB000C4F3021202EB820204F00F0404EB4204A9
:101FC0001C6030BC7047F0B4049EC568C468A5426C
:101FD00003D0C568C468AC42FBD199B1C4F30330E7
:101FE00000EB8000C4F3032707EB4007C4F30210A3
:101FF00000EB800504F00F0000EB4500642505FBB5
:102000000070086042B1C4F3005081000844C4F37A
:10201000034101EB4001116043B1C4F3017202EBD3
:102020008202C4F3036101EB42021A6016B1C4F3E9
:1020300042543460F0BC7047284B99424BD8A3F50A
:102040007A5399422DD910B4254CA4FB0234A40B29
:10205000033C244B0B449B00B2FBF3F2033AFF2CEE
:102060001DD9002101316408FF2C01D90629F9D9B5
:10207000FF2A07D9062905D801315208FF2A01D9BC
:102080000629F9D913029BB2090401F4E0210B439C
:10209000E4B22343036100205DF8044B7047002144
:1020A000E6E74900B2FBF1F2033AFF2A11D9002317
:1020B00001335208FF2A01D9062BF9D9110289B23E
:1020C0001B0403F4E0230B43D2B21A430261002045
:1020D00070470023F2E70120704700BF801A060016
:1020E000F11976050012FD3F08B54FF0FF3282620C
:1020F000026A80220260026B0822026020220260D3
:10210000042202600A684968034B9847012814BFFB
:102110000020012008BD00BF39204000CA68002A05
:102120004CD070B48C68002646604B681B0203F4E8
:10213000407343F480530D7C2D0405F4FE052B43BE
:102140004360C6604D685DB10B78012D02DD4E78AD
:1021500046EA0323022D04DD897841EA032300E0E7
:102160000023C36001230360022512E0056013F021
:10217000020F1BD0036B2370036A13F0010FFBD017
:10218000036A002070BC7047036B04F8013B013AFE
:10219000F2D0036A13F4807F14D147F23051012A40
:1021A000E4D013F0020FEFD1002AE5D0036A13F454
:1021B000807F05D10139F2D10920E3E70120704782
:1021C0000520DFE70520DDE7CB68002B43D070B4A6
:1021D0008C68002646600A7C120402F4FE024D68F8
:1021E0002D0205F440752A434260C6604D685DB11A
:1021F0000A78012D02DD4E7846EA0222022D04DD26
:10220000897841EA022200E00022C26004E014F86A
:10221000012B4263013B0FD0026A12F4807F1ED172
:1022200012F0040FF3D1026A12F4807F15D112F07C
:10223000040FECD1002BF6D1036A13F4807F11D187
:1022400013F0040FF8D002230360036A13F0010FA8
:10225000FBD0002004E001207047052000E00520AD
:1022600070BC70470520FBE7436913F0020F02D0F2
:10227000C1610020704701207047436913F0010FCE
:1022800003D083690B70002070470120704710B4A1
:102290000B01934214D9C9004B0803EBC202B2FBF5
:1022A000F1F2D3085C1E4FF6FE718C4201D9012079
:1022B00017E0416841F4002141600CE0012010E08A
:1022C000590801EBC202B2FBF3F2D3085C1E4FF6D1
:1022D000FE718C42F2D8120402F4E0221A43026228
:1022E00000205DF8044B7047084BC0F8E430002331
:1022F00043604362836288230360242303604FF4B6
:10230000807303604FF4002303607047004153550E
:1023100070B505460C4616460F4B984700220F4BEA
:102320001A60A4B13246216828460D4B98470246F0
:1023300078B96368A1680B4321690B43E1680B43DB
:1023400006490B6069680B436B60104670BD012243
:10235000FBE70122F9E700BFE9224000900A402094
:102360008F224000402303607047102303607047B2
:10237000436913F0020F04D0C1F30801C1610020CA
:10238000704701207047436913F0010F05D083693E
:10239000C3F308030B60002070470120704700EB77
:1023A0008111CB6D53680B6693684B66136823F0FD
:1023B0007F430B671369C3F30B034B675369CB6709
:1023C000936923F07F43C1F88030D36923F07F43C2
:1023D000C1F88430D3688B677047FEE700B583B0DF
:1023E000254B264A9A4210D0254B234A9A420CD2BA
:1023F000013B9B1A23F00303043313441F4951F894
:10240000040B42F8040B9A42F9D11E4B1E4A9A4221
:102410000AD2013B9B1A23F0030304331344002127
:1024200042F8041B9342FBD1184A194B23F07F0357
:102430009360EFF31083B3FA83F35B09019372B6F1
:10244000BFF35F8F0022134B1A700199124A136871
:1024500043F470031360BFF34F8FBFF36F8F29B145
:1024600001220C4B1A70BFF35F8F62B60B4B98477B
:102470000B4B9847FEE700BF000040207C824000E5
:10248000E8094020240B4020E809402000ED00E04E
:10249000000040003000402088ED00E0B5484000DA
:1024A000F54440003B4B1B6B03F00303012B1DD095
:1024B00083B1022B36D0374B1B6B03F07003702BAC
:1024C0005FD0344B1A6B3449C2F302120B68D3400D
:1024D0000B607047314B5B6913F0800F14BF4FF4F2
:1024E00000424FF4FA422C4B1A60E4E7294B1B6A76
:1024F00013F0807F03D02A4A274B1A60DBE7294A72
:10250000254B1A60234B1B6A03F07003102B05D078
:10251000202BD0D1224A204B1A60CCE7224A1E4BF6
:102520001A60C8E71B4B1B6A13F0807F16D01C4A49
:10253000194B1A60174B1B6B03F00303022BBAD124
:10254000144A916A926A1448C1F30A41036801FB74
:102550000333D2B2B3FBF2F30360ACE7114A0E4B84
:102560001A600C4B1B6A03F07003102B05D0202B54
:10257000E0D10B4A084B1A60DCE70B4A064B1A60A5
:10258000D8E7054A13680949A1FB03135B081360E8
:10259000704700BF00060E403400402010180E4067
:1025A000001BB70000093D0000127A00ABAAAAAADE
:1025B000164B984213D9164B984215D9154B984291
:1025C00016D9154B984217D9144B984218D9144B69
:1025D000984294BF134A144A144B1A6070474FF044
:1025E0008062124B1A607047114A104B1A60704794
:1025F000104A0E4B1A6070470F4A0C4B1A60704716
:102600004FF00422094B1A60704700BFBFF35E0110
:102610007FE7BD023FDB1C04FFCE7B05BFC2DA06AD
:102620007FB639080005000400060004000C0E40C7
:102630000001000400020004000300040A4B1B68B0
:1026400053B1094B1B681A180849914208DB104620
:10265000054A106018467047054A034B1A60F0E7B8
:102660004FF0FF30704700BF940A4020FCFF452028
:10267000282D40204FF0FF3070474FF400534B603F
:10268000002070470120704700207047012801D9C1
:102690000120704710B504460A4B9847032806D11D
:1026A0002046084B9847032801D1012010BD38B9B6
:1026B0002046054B9847002814BF0420002010BD79
:1026C000012010BD85104000B510400008B5054B35
:1026D000984720B102280CBF0320012008BD00202C
:1026E00008BD00BF851040002DE9F04F83B0804643
:1026F0000D4614461F46154B984718B9012003B0E4
:10270000BDE8F08F064601A94046114B9847B146F7
:1027100006FB0742019B03FB06639A4201D9042092
:10272000EDE7BA4677B176020027DFF828B02A46EF
:1027300021464046D84738B901374C4435445745BF
:10274000F5D1DCE70020DAE70120D8E7AD10400042
:1027500099104000C91040002DE9F04F83B0804629
:102760000D4614461F46154B984718B9012003B073
:10277000BDE8F08F064601A94046114B9847B14687
:1027800006FB0742019B03FB06639A4201D9042022
:10279000EDE7BA4677B176020027DFF828B02A467F
:1027A00021464046D84738B901374C44354457454F
:1027B000F5D1DCE70020DAE70120D8E7AD104000D2
:1027C00099104000E110400010B582B01446032972
:1027D00025D8DFE801F01D070F0201231360002058
:1027E00002B010BD01A9114B9847019B0133236032
:1027F0000020F5E70E4B9847082812D84FF48B734A
:1028000023FA00F010F0010F0DD000202070E7E750
:10281000084B984700280CBF00200320E0E7042065
:10282000DEE70120DCE70120DAE700BF9910400075
:10283000AD1040008510400030B58BB0114C07AB97
:1028400008AA09A92046104DA84703AB009304AB82
:1028500005AA06A920460D4CA047049B1B04059819
:1028600043EA4053099843EAC023089843EA4013D7
:10287000079843EA50030698A0F2BC7043EA406010
:102880000BB030BD60180E406D1F4000C71F4000E8
:102890003AB101388A1811F8013B00F8013F914222
:1028A000F9D1704722B1821800F8011B8242FBD196
:1028B000704702398369023B994204D28378806A67
:1028C00001FB0300704700207047024600F10B0136
:1028D0000020C30143EA500312F8010B50FA83F3BE
:1028E000D8B28A42F5D1704798B108B502780AB9D2
:1028F000092008BDC2888A4201D0092008BD40785D
:10290000054B984700F00100002814BF0320002069
:1029100008BD0920704700BFCD26400038B50446E9
:1029200001230A4600F1300140781D4DA84708B147
:10293000032038BD94F82F2294F82E3243EA022364
:102940001BB2184A934201D0022038BD94F8692086
:1029500094F868301B0443EA026394F8662013433A
:1029600094F8672043EA022323F07F430E4A934200
:1029700013D094F8853094F88400000440EA036092
:1029800094F88230184394F8833040EA032020F012
:102990007F40801A18BF012038BD002038BD00BF1D
:1029A000E926400055AAFFFF46415400F8B50368E8
:1029B0001C78303C092C0AD85D783A2D01D00024CF
:1029C00006E002330360072C02D90B20F8BD002477
:1029D000AE4B53F824500D60002D00F03E8116469A
:1029E0002B787BB16878AA4B984710F0010F09D17A
:1029F000002E00F0348100F0040000280CBF0020FD
:102A00000A20F8BD00232B70E0B26870A14B9847F4
:102A100010F0010F01D00320F8BD26B110F0040F13
:102A200001D00A20F8BD002128469B4B9847012879
:102A300006D00024032800F01481C8B10D20F8BD91
:102A400095F8F2310BB90D20F8BD95F8F93195F8EC
:102A5000F841240444EA036495F8F6311C4395F8E0
:102A6000F73144EA0324214628468B4B9847E1E797
:102A700095F83C2095F83B3043EA02231BB2B3F5AE
:102A8000007F01D00D20F8BD95F8473095F846201D
:102A900052EA03220DD195F8573095F856201204CA
:102AA00042EA036295F854301A4395F8553042EAE9
:102AB0000322EA6195F840E085F803E00EF1FF3368
:102AC000DBB2012B01D90D20F8BD95F83D60AE7049
:102AD000002E00F0C880731E334201D00D20F8BDD7
:102AE00095F8423095F8411041EA0321298111F00F
:102AF0000F0F40F0BA8095F8440095F8433053EA40
:102B000000230DD195F8530095F852301B0443EA89
:102B1000006395F85000034395F8510043EA002301
:102B200095F83F0095F83E7057EA002700F09F8027
:102B300002FB0EFE07EB111070448342C0F0998037
:102B40001B1AB3FBF6F3002B00F0958040F6F576E8
:102B5000B3428CBF022601264FF6F57C634500F296
:102B6000A5800233AB612044A8623C442C6200295A
:102B700000F0898074446C62022E0BD15B0003F27A
:102B8000FF13B2EB532F7CD34FF0FF332B610023A5
:102B9000EB6051E003EB430103F0010303EB51034E
:102BA000EDE795F82F2295F82E3243EA02231BB267
:102BB0003A4A93424BD195F8332095F832301B04B2
:102BC00043EA026395F83020134395F8312043EA35
:102BD0000223334A93423CD195F8172295F81632D6
:102BE0001B0443EA026395F81422134395F8152257
:102BF00043EA02232B4A93422DD195F81F2295F8E0
:102C00001E321B0443EA026395F81C22134395F815
:102C10001D2243EA0223EB6095F81B2295F81A3235
:102C20001B0443EA026395F81822134395F819220E
:102C300043EA02232B6103262E701B4A13880133BB
:102C40009BB21380EB800020E8622871F8BD032658
:102C5000F2E70326F0E70326EEE70C20F8BD00209C
:102C6000F8BD0120F8BD0D20F8BD0D20F8BD0D20E8
:102C7000F8BD0D20F8BD0D20F8BD0D20F8BD0D20CC
:102C8000F8BD0D20F8BD0D20F8BD00BF980A40200A
:102C9000CD2640008D2640001D29400055AAFFFF8B
:102CA0005252614172724161B80A40200233AB61F5
:102CB0002044A86227442F620029E0D195F85F00E4
:102CC00095F85E10090441EA006195F85C00014343
:102CD00095F85D0041EA002169629B0003F2FF1351
:102CE000B2EB532FC9D34FF0FF332B610023EB60BE
:102CF0006B7195F8613095F8602042EA0322224416
:102D00006A61012305F130016878034CA04700286F
:102D10003FF447AF03268FE7E92640002DE9F0474F
:102D2000C76A8F4235D00E46044603791BB92EBBC5
:102D30000020BDE8F08700F1300801233A46414603
:102D40004078184DA84738BB00232371236AE269F5
:102D500013449F42EBD2E578012DE8D94FF0010AE8
:102D6000DFF84090E3691F4453463A464146607895
:102D7000C847013DEDB2012DF4D1D8E70123324619
:102D800004F130016078084DA84740B9E662BDE81B
:102D9000F0870020BDE8F0870120BDE8F087012022
:102DA000BDE8F08759274000E926400001296AD98B
:102DB000F8B58369994268D20C4606460378022B1F
:102DC0002FD0032B41D0012B02D04FF0FF30F8BDA4
:102DD00001EB5107016A01EB57212D4B984710B1C8
:102DE0004FF0FF30F8BDC7F30803334493F8305079
:102DF0000137316A01EB57213046254B984710B116
:102E00004FF0FF30F8BDC7F30807F01990F8300015
:102E100045EA002014F0010F14BF0009C0F30B00B5
:102E2000F8BD016A01EB1421194B984710B14FF01E
:102E3000FF30F8BD600000F4FF70304490F831308E
:102E400090F8300040EA0320F8BD016A01EBD4118C
:102E50000F4B984710B14FF0FF30F8BDA00000F4C1
:102E6000FE7000F130023244D17893781B0443EABB
:102E70000163304490F830001843537840EA03204F
:102E800020F07040F8BD012070470120F8BD00BF60
:102E90001D2D4000F8B505460C46C180816801290A
:102EA0003DD003689A69914201D30220F8BD61B90F
:102EB0001A78032A06D00022EA601A89A24221D891
:102EC0000220F8BD596A0029F5D09E783601B44237
:102ED00010D3174F2868B8470146B0F1FF3F20D004
:102EE000012820D92B689B6998421ED2A41BA4B24A
:102EF000A642EFD9E96028680E4B984700EB141002
:102F0000286103E05B6A03EB14132B612B683033F9
:102F100004F00F0403EB44146C610020F8BD0220A0
:102F2000F8BD0120F8BD0220F8BD0220F8BD00BFA9
:102F3000AD2D4000B32840002DE9F041012940F2B9
:102F40008F808369994201D302278AE015460C4697
:102F500006460378022B4ED0032B5FD0012B03D003
:102F60000227012333717CE001EB5108016A01EB78
:102F700058213D4B984707460028F2D1C8F3080373
:102F800014F0010F1CD0334493F8302002F00F02EC
:102F900042EA051283F8302008F101080123337159
:102FA000316A01EB582130462F4B9847002853D106
:102FB000C8F30808C5F30712B04488F83020D0E7FA
:102FC000334483F8305008F1010801233371316A2A
:102FD00001EB58213046244B984700283ED1C8F3D6
:102FE000080806EB080393F8303023F00F03C5F30D
:102FF00003221A43E0E7016A01EB14211A4B9847B8
:1030000007460028ADD1630003F4FF73334483F80F
:103010003050C5F3072283F83120A2E7016A01EBA3
:10302000D411114B9847074600289AD1A10001F40A
:10303000FE7101F130033344DA781206314402F0B4
:1030400070422A4381F83020C2F307215970110CD5
:103050009970120EDA7084E7074682E7074680E728
:1030600002273846BDE8F0811D2D40002DE9F041D2
:103070000546884641B9C66886B183699E4228BF25
:1030800001263446274F17E0264B98470346012870
:103090003ED9AA69904240D34646F2E70126F0E7BE
:1030A00021462846B847034670B1B0F1FF3F34D0FF
:1030B000012832D0B4422FD00134AB699C42EFD307
:1030C000012E27D90224EBE76FF0704221462846F3
:1030D000154B9847034610B9B8F1000F0BD18BB9C7
:1030E000EC602B69B3F1FF3F1AD0013B2B61012348
:1030F0006B71234611E02246414628460A4B984709
:103100000346ECE7012B0CBF4FF0FF33012304E033
:10311000012302E0002300E000231846BDE8F0810F
:103120002346FAE7AD2D4000392F400001292ED962
:103130002DE9F84304460E468369994203D30222DF
:103140001046BDE8F883164F4FF00009DFF85480B1
:1031500003E02E46A369AB42F2D931462046B84778
:103160000546B8B1012817D0B0F1FF3F16D04A4646
:1031700031462046C04702460028E1D12369B3F119
:10318000FF3FE6D00133236101236371E1E70222AF
:10319000104670470022D3E70222D1E70122CFE791
:1031A000AD2D4000392F40002DE9F84FC48801347F
:1031B000A4B214B90420BDE8F88F036913B9042040
:1031C000BDE8F88F0E46054614F00F0710D1013305
:1031D0000361C16831B903681B89A34208D8042080
:1031E000BDE8F88F00688378013B13EA141308D018
:1031F000EC802B68303303EB47136B610020BDE894
:10320000F88F324B9847804601284DD9B0F1FF3FE7
:103210004DD02868836998453ED316B90420BDE88F
:10322000F88FE9682A4B9847804610B90720BDE817
:10323000F88F01283ED0B0F1FF3F3ED00021286832
:10324000244B984700283BD128684FF40072002196
:103250003030214B98472E68414630461F4B9847E7
:10326000F06200264FF0010BB246DFF868902B6841
:103270009978F2B291420BD983F804B0514628688C
:10328000C8470136F8B92A68D36A0133D362EEE73A
:103290001646DA6A961BDE62C5F80C80414628683D
:1032A0000E4B98472861A3E70220BDE8F88F012064
:1032B000BDE8F88F0220BDE8F88F0120BDE8F88F47
:1032C0000120BDE8F88F0120BDE8F88FAD2D40004A
:1032D0006D3040001D2D4000A5284000B32840005F
:1032E0002DE9F04F85B005460021614B9847804697
:1032F00008BB4FF0FF0BD9465E4FDA4694E00F2A29
:103300001DD0B9F1000F04D120465B4B9847824590
:1033100011D04FF6FF732B84AB69DA7A12F0010FEC
:1033200079D104F10B0014F8011B13F8012B914221
:103330006BD18442F7D1404605B0BDE8F08FD5F897
:103340001C80B8F1000F68D016F0400F0CD094F834
:103350000DA006F0BF06EB882B8494F80DB0D34582
:1033600007D04FF0FF0958E0B145F6D04FF0FF0904
:1033700053E094F800A02AF0400A0AF1FF3A0AEB61
:103380004A030AEB8303DFF8FC9009F10D0A0120E0
:103390000396CDF804B01E4602950FE01846374B51
:1033A00098478346FE2E5AD8751C38F81600334BC2
:1033B0009847834557D12E46D14513D019F8012B94
:1033C000A3185978A35C43EA01230028E6D14FF6FD
:1033D000FF729342F0D0DDF804B0029DDA464FF060
:1033E000FF091AE0DDF804B03246039E029D2378FF
:1033F00013F0400F04D018B138F81230002BEDD183
:10340000013E5FFA86F9DA4607E04FF0FF0904E073
:103410004FF0FF0901E04FF0FF0900212846184B4B
:1034200098478046002886D129692868B847804691
:10343000002880D16C69267876B1E37A03F03F02E8
:10344000E52EE5D013F0080F3FF459AF0F2A3FF4F3
:1034500056AF4FF0FF09E0E74FF004086BE7DDF8E7
:1034600004B0029DBAE7DDF804B0029DB6E700BFE4
:10347000952E40001D2D4000CB28400069404000A3
:10348000A9314000E47840002DE9F04F89B00446AE
:103490008569D0F81CB00C22294605A8A84B98478E
:1034A0009DF81F3013F0010F79D00023EB72E36118
:1034B0000B2205A92846A24B984701273B464FF00F
:1034C0002008DFF89C92DFF878A232E03B4630E03B
:1034D000134602E0002300E013462B4405E041467A
:1034E00003F8011B591B072907D8072AF7D808A991
:1034F000114411F8141C0132F2E72046C847064671
:1035000000283ED10137BFB2642F38D00B2205A965
:103510002846D047052FD9D93B465946DA0342EA17
:10352000530331F8022B12FA83F39BB20A88002A64
:10353000F4D10DF11306072203F00F0000F1300162
:10354000392988BF00F13701013A06F80119C3F3A0
:103550000F13002BF0D17E2108AB134403F8141C89
:10356000002AB5D02B78202BB4D029460023013374
:103570009A42B1D011F8010F2028F8D1ADE7072603
:1035800004E0642F00F0AC80042803D0304609B07A
:10359000BDE8F08F9DF81F30EB72C4F81CB09DF8A9
:1035A0001F3013F0020F14D0BBF800307BB10023A2
:1035B00001339BB23BF81320002AF9D11933614F34
:1035C00087FB0327DB17C3EBA707BFB202E000238B
:1035D000F4E70127002120465B4B98470646002868
:1035E000D4D14FF0000A5546DFF86481D346DFF8A6
:1035F0005C910AE06B1C9BB29F4273D01D46012177
:103600002046C84706460028C0D121692068C04727
:1036100006460028BAD163691B78E52B00D023B990
:10362000002DE7D1B4F806A0E4E75D46E7E7714670
:1036300070E04FF6FF72934202D039F811300BB9A7
:103640004BF0400B80F800B0236801221A71394614
:1036500020463E4B98470646002897D1013DADB223
:1036600015B3216920683A4B9847064600288DD14A
:10367000D4F81C9060695FFA85FB9DF800304373B5
:103680000F23C37207738776C7760BF1FF3101EB07
:10369000410301EB83012F4A02F10D08019B4FF614
:1036A000FF764FF0FF0A38E021692068284B9847E1
:1036B000064600287FF46AAF65692022002128466B
:1036C000254B98470B22A16928461D4B9847A369B3
:1036D000DB7A03F018032B73236801221A7155E774
:1036E000072653E7012BDFD951462046164B984752
:1036F000064600287FF44AAFA069184B984700900F
:1037000000270197ADE792F800E000F80EA086448C
:103710008EF801A0013242458BD0B342F3D001F1C3
:10372000010E39F811301178435401444FEA132C3B
:1037300081F801C0002B7FF47AAF71463346E9E788
:10374000912840004FECC44E952E4000A931400016
:103750001D2D4000E4784000A5284000CB28400003
:10376000E132400070B5044600212D4B98470346D6
:1037700050B92378032B09D0002211466078294BD9
:103780009847031C18BF0123184670BD6379002BAE
:10379000F2D00026E66204F130054FF400723146A3
:1037A0002846214B9847552384F82E32AA2384F8C3
:1037B0002F32522384F8303084F83130612384F87A
:1037C0003230412284F83320722184F8141284F8B4
:1037D000151284F8162284F81732236984F81832F7
:1037E000C3F3072284F819221A0C84F81A221B0E3C
:1037F00084F81B32E36884F81C32C3F3072284F890
:103800001D221A0C84F81E221B0E84F81F3201237D
:10381000626929466078054DA8476671ACE700BF2C
:103820001D2D4000C9274000A52840005927400011
:103830002DE9F04F83B082460D460B782F2B0AD02E
:103840005C2B08D00023CAF808302B781F2B04D932
:10385000DFF8FCB230E10135F4E700215046B64B09
:10386000984703460022CAF814205AE1002B40F082
:10387000528127F8022F631C16F8010F2F2818BF5A
:103880001F281BD95C2819D0B3F5807F00F0438135
:103890001C464146D8470246002800F03C817F285C
:1038A000E7D8222800F03C812A23A44998B290420C
:1038B000DCD011F8013F002BF8D1DAE71D442028B5
:1038C00034BF04260026002C00F02A816FF000434C
:1038D000234409EB430239F81330202B01D02E2B5F
:1038E00008D1013C00F01C8132F8023D202BF8D0B9
:1038F0002E2BF6D06700002329F814300B2220214C
:10390000DAF818008E4B9847B9F80030202B01D018
:103910002E2B1FD149460023013331F8022F202AD4
:10392000FAD02E2AF8D00BB146F00306023F09EB7D
:10393000070239F807102E2905D0013C03D032F8D0
:10394000021D2E29F9D1082200924FF00008CDF86F
:10395000048004E00023E9E746F003063B465F1CD1
:1039600039F81300002866D02028F5D02E2801D180
:10397000A742F1D1009B984518D2A74216D07F28C4
:1039800031D82B283DD02C236E499AB2824243D0A5
:1039900011F8013F002BF8D1A0F141039BB2192B84
:1039A0003DD8019B43F0020301932DE0009B0B2BBC
:1039B0000FD0A74218BF46F00306A7423BD8019B91
:1039C0009B00DBB2019323460B2200924FF00808C4
:1039D000C5E746F00306DAF818301A78E52A32D13E
:1039E00005221A702CE00021D8470346002800F079
:1039F0009F80554A134413F8800C46F002060028B5
:103A0000BFD146F003065F20DAF8183003F808004B
:103A10003B4608F10108A2E7002BF2D1BCE7A0F178
:103A200061039BB2192BEFD8019B43F00103019373
:103A3000203880B2E8E7DAF818301A78E52ACFD0D3
:103A4000009B082B52D0019A02F00C030C2B54D08F
:103A500002F00302032A50D016F0020F0BD1019A94
:103A600002F00309B9F1010F08BF46F01006042B5C
:103A700008BF46F00806DAF81830DE725046334BBD
:103A80009847DAF81830DA7A0346002838D112F06D
:103A9000040F46D1DAF81430DA7A12F0100F38D069
:103AA000597D1A7D42EA0122D97E9B7E43EA012399
:103AB00043EA0243CAF808302B782F2B01D05C2B45
:103AC00005D115F8013F2F2BFBD05C2BF9D0DAF88C
:103AD0001C9028782F2818BF1F281ED95C281CD0BE
:103AE000A9F102072E460124A046D2E6019B4FEA27
:103AF00083095FFA89F30193A5E746F00206ABE775
:103B000004280ED102F00402002A14BF0346052344
:103B100007E0052305E0062303E001351F2804D84C
:103B20000623184603B0BDE8F08F00242646CAE6F7
:103B300046F0020665E700BF952E4000757940000B
:103B4000A528400081794000F4784000E13240002F
:103B500029404000072801D90B207047064B53F835
:103B600020300BB100221A7009B100230B70024BF8
:103B700043F8201000207047980A40202DE9F041BA
:103B8000ADF50E7D0546019116460023036002F057
:103B90001F0702F01E0285A901A8584B984782AB67
:103BA0008B9302AB8C9368B103468A9C16F01C0F72
:103BB00058D1002B40F09680E37A13F0100F62D0BA
:103BC00004238FE0019985A84D4B984703468A9CB2
:103BD00034B928B916F01C0F40F08980062346E05E
:103BE00016F01C0FE5D0002B3CD1E37A13F0110F37
:103BF0007FD116F0040F7ED117F0080F50D0414B43
:103C00009847A073C0F30723E373030C2374000EDB
:103C100060740023E37223776377A377E377627D91
:103C2000267D46EA0226E17EA27E42EA0122A376B2
:103C3000E3762375637585980123037152EA06467E
:103C40002CD0D0F82C8031462F4B984703460028C3
:103C500048D18598013EC66041462C4B98470346A3
:103C6000E0B13FE0042B04D047F008078A9CDBB1A9
:103C700038E085A8264B984747F008078A9C0346FA
:103C80000028B9D02EE016F0020F04D013F0010F77
:103C900001D0072326E016F0080F01D047F02007D7
:103CA000859BDB6AEB612C62AF71627D237D43EA09
:103CB0000222E17EA37E43EA012343EA02432B6111
:103CC000E27FA37F1B0443EA0263227F1343627FE8
:103CD00043EA0223EB600023AB60AB61859A2A6064
:103CE000D288AA8018460DF50E7DBDE8F081062326
:103CF000BAE70723F6E70823F4E700BFAD29400041
:103D000031384000392840002D3140001D2D400041
:103D1000893440002DE9F04F83B0044689461646A9
:103D200098460023C8F8003081880068754B984792
:103D30000190002840F0E280A37913F0800F40F05A
:103D4000DB8013F0020F02D107230193D6E0E36872
:103D5000F3420ED2002E74D10BE000216A4B98473B
:103D60000346206103E06169674B98470346002BD7
:103D70007AD1A368E268934288BFE360A37943F0F5
:103D80002003A371BAE0A37963F07F03A371022338
:103D90000193B3E0A37963F07F03A371012301933F
:103DA000ACE00021594B9847002868D0A37963F014
:103DB0007F03A37101230193A0E0A37963F07F0344
:103DC000A3710223019399E0A37963F07F03A371A8
:103DD0000123019392E04FF4007209EB412130304E
:103DE0004B4B9847236800221A716CE0A268E36885
:103DF0009A426BD2A561A568C5F30805C5F50075A3
:103E0000B54228BF3546A1692068404B9847002835
:103E10006BD1A068C0F30800303023682A464946B9
:103E200018443B4B9847236801221A71A944A368A0
:103E30002B44A360D8F800302B44C8F80030761B20
:103E400097D0A268C2F30803002BD4D120688378EE
:103E5000013B03EA522313F0FF070BD1002A82D162
:103E60002369002B3FF479AF012B8CD0B3F1FF3FD6
:103E700090D063612068C26AA3699A4291D0D4F855
:103E800000A061695046234B98470546002894D00E
:103E90003D445FEA562BA9D09AF8023007EB0B029B
:103EA0009A4288BFA3EB070B5FFA8BF32A46494679
:103EB0009AF80100184FB847002885D12068C16AD8
:103EC000491B8B4587D84FEA4B25AFE70021504669
:103ED0000E4B984710B92368DD628BE7A37963F036
:103EE0007F03A3710123019308E0A37963F07F03AB
:103EF000A3710123019301E002230193019803B010
:103F0000BDE8F08FE92840006D3040001D2D4000D5
:103F100091284000B32840005927400038B5044696
:103F2000818800681F4B9847034618B9A27912F0A0
:103F3000200F01D1184638BDE16920681A4B984717
:103F400003460028F6D1256AEB7A43F02003EB7292
:103F5000E3682B77A3891B0A6B77E389AB77E37B55
:103F6000EB772369AB76238A1B0AEB76638A2B7582
:103F7000638A1B0A6B750D4B9847A875C0F307231E
:103F8000EB75030C2B76000E6876A37923F02003E3
:103F9000A371236801221A712068054B98470346D4
:103FA000C8E700BFE92840001D2D40003928400027
:103FB0006537400010B50446034B9847034608B9DF
:103FC00000222260184610BD1D3F400010B582B08F
:103FD0000C468DF8000001AB012269462046054CD5
:103FE000A047019B012B0CBF01204FF0FF3002B016
:103FF00010BD00BF153D4000F8B503787BB10E46FB
:104000000546441C074F31461846B847B0F1FF3FFC
:1040100006D0601B14F8013B002BF4D1F8BD002042
:10402000F8BD00BFCD3F40007F2819D971B9C7281E
:1040300013D00C4A012332F8021F814203D001330E
:104040009BB2802BF7D18033D8B27047FF2806D8B7
:104050008038044B33F8100070470023F3E700204A
:10406000704700BF8879400061280ED008490022BF
:10407000013231F8023F834201D0002BF8D11BB14D
:10408000044B33F81200704770470022F8E700BF76
:10409000887A4000687C4000F0B583B005460C4645
:1040A000002301932A4B984213D02A4B984218D0F0
:1040B000294B98421DD0294B9D4222D0284B9D422E
:1040C00027D0284B9D422ED0274B9D4235D003B0A0
:1040D000F0BD1F46254E21463846B0470028FAD18C
:1040E000E9E71F46214E21463846B0470028FAD15D
:1040F000E4E71F461D4E21463846B0470028FAD156
:10410000DFE71F46194E21463846B0470028FAD14E
:10411000DAE71E46164D01A93046A8470028FAD115
:10412000019B2370D3E71E46114D01A93046A847D5
:104130000028FAD1019B2370C9E71E460C4D01A946
:104140003046A8470028FAD1019B2370BFE700BF83
:1041500000080E40000A0E40001A0E40001C0E40DF
:10416000004002400080024000C002407B2240002C
:104170008723400070B50C462A4B984213D02A4B37
:10418000984219D0294B98421FD0294B984225D0EC
:10419000284B98422BD0284B984231D0274B98423D
:1041A00037D0002070BD1E46254D21463046A84719
:1041B0000028FAD1012070BD1E46214D214630460F
:1041C000A8470028FAD1012070BD1E461C4D21468B
:1041D0003046A8470028FAD1012070BD1E46184D70
:1041E00021463046A8470028FAD1012070BD1E465E
:1041F000144D21463046A8470028FAD1012070BD51
:104200001E46104D21463046A8470028FAD101200D
:1042100070BD1E460B4D21463046A8470028FAD1F6
:10422000012070BD00080E40000A0E40001A0E402A
:10423000001C0E40004002400080024000C00240CE
:10424000692240007123400038B504460D46064BF4
:10425000984720B929462046044B984738BD29463F
:104260002046034B984738BD891C4000911B4000F5
:10427000951B400010B54FF080510448044CA047F6
:104280004FF480710348A04710BD00BF00140E40DA
:104290004942400000120E4010B582B00A20104B77
:1042A0009847104C09224FF4006120460E4B984766
:1042B0004FF4006120460D4B98470D4B009350235F
:1042C0004FF400620A2120460A4CA0470A4B4FF4E3
:1042D00080621A60202283F80A2302B010BD00BF5A
:1042E000191F4000000E0E402B1C4000C71C400050
:1042F00075424000251D400000E100E010B582B08D
:1043000004460C20054B98470023009322464FF4A7
:1043100080710348034CA04702B010BD191F400034
:1043200000120E40611C400000B585B01320074B01
:104330009847074B019342F21073029301A9054875
:10434000054B984705B05DF804FB00BF191F4000FE
:1043500000A3E11100800140E920400010B586B0C3
:1043600014468DF814000023029306AB03F8151DC4
:1043700003930123049301A909480A4B984710B1FC
:10438000012006B010BD002302930123049303947F
:1043900001A90348044B9847003018BF0120F0E7FB
:1043A00000800140C92140001D21400000B587B0B8
:1043B00077238DF81430F4238DF804300122029213
:1043C00006AB272103F8151D0393049201A90448A5
:1043D000044B984700B1012007B05DF804FB00BF13
:1043E00000800140C921400030B583B005460DF181
:1043F0000602FA2177200D4CA0470DF10602FA21A2
:104400007720A0470DF10502FB217720A0470DF191
:104410000502FB217720A0479DF806209DF8053076
:1044200043EA02232B60002003B030BD5D4340000F
:1044300030B583B005460DF10602FD2177200D4C05
:10444000A0470DF10602FD217720A0470DF10502DE
:10445000FE217720A0470DF10502FE217720A0471D
:104460009DF806209DF8053043EA02232B600020CA
:1044700003B030BD5D43400030B583B005460DF15B
:104480000602F72177200D4CA0470DF10602F72117
:104490007720A0470DF10502F8217720A0470DF104
:1044A0000502F8217720A0479DF806209DF80530E9
:1044B00043EA02232B60002003B030BD5D4340007F
:1044C00010B582B00DF10702D0217720084CA0472B
:1044D0000DF10702D0217720A04730B99DF80700E1
:1044E000603818BF012002B010BD0120FBE700BFFB
:1044F0005D4340002DE9F04FADF5257D984B984781
:10450000984B98474FF40042974B5A600B20974EB8
:10451000B0470A20B04710224FF000519448954C04
:10452000A0474FF400124FF000619348A047934A10
:10453000D2F8143143F01003C2F814310E20B04702
:10454000DFF800B38E4DCBF800508E4B8E4A1A60C8
:104550008E4B8F4A1A604FF4E1330193C0230293CC
:104560004FF4006303930024049405940E20B04795
:10457000884A01A92846884B98472846874B984780
:104580002846DFF8C4A2D047DFF8C092D9F800303F
:1045900021469868DFF8B882C047D9F80030214634
:1045A0005868C0477E487F4FB84701207E4B9847E8
:1045B0007E4B98470DF51F7EDFF898C2BCE80F00D0
:1045C000AEE80F00DCF80030AEF800300122784B86
:1045D0001A70BFF35F8F62B6CBF80050694B6A4A1E
:1045E0001A606A4B6A4A1A604FF4E1330193C023A0
:1045F00002934FF400630393049405940E20B04794
:10460000644A01A92846644B98472846634B98475B
:104610002846D047D9F8003021469868C047D9F8D5
:10462000003021465868C047624B98476248B847F7
:10463000624A63496348B8476348B847634B984741
:104640006348644B9847644E644D654CB04760B90D
:104650006448544B9847644B9847DFF8FCB1DFF847
:10466000FC91504FDFF8F8A153E028464D4B984796
:104670002046584B9847E9E70999A9FB01314909B8
:104680005A48B8474BE00899A9FB013149095848F5
:10469000B8474BE00799A9FB013149095548B8478C
:1046A0004BE04046B8475448B8470025534C28468D
:1046B000A0470228FBD10020B0470128F1D00028F4
:1046C000F9D14F48B8474FF40C72002113A84D4B55
:1046D000984713A900204C4B98470B283BD04B48D8
:1046E000B8474B48B847A4A9302301F8143D0A2223
:1046F0000AA8484B98470146002800F0B580464874
:10470000B8474648B84700253C4C2846A0470228F1
:10471000FBD109A8D8470028AED04148B84708A81F
:10472000404B98470028AED03F48B84707A83F4BBA
:1047300098470028AED03E48B8474FF480715046A5
:104740003C4B98473C48234B98473C48B8473C4E25
:10475000DFF81081AFE70B212F48B847D1E700BF42
:10476000151040008511400050180E40191F4000E0
:1047700000100E40991B4000000E0E4000800840C3
:1047800000800240F40A402075414000F00A4020B9
:104790009940400080D1F00811234000652340007B
:1047A000487E400005494000FD42400099424000DB
:1047B000300040205D034000747E4000A47E400035
:1047C000B07E4000BC7E4000D47E400029434000C3
:1047D00084B7070001004020C1444000EC7E400047
:1047E00049569A00047F4000AD434000507F40008E
:1047F000747F4000907F4000E47F400089034000C8
:104800000C8040002D494000553B4000388040005E
:10481000408040007D3B400028804000B880400040
:10482000347F400031444000647F400079444000C0
:10483000847F4000494240006BAF0303A07F4000EB
:10484000D50E4000F80A40206B234000380040207D
:10485000C9494000D4804000E94340001F85EB5126
:1048600000120E40D07F40000B48B8470B48B847B5
:104870000AA90B480B4B984728B90AA80A4B984736
:104880000A48B8473DE70448B8470AA8064B984786
:104890000748B84735E700BF388040005C804000DB
:1048A00080804000F93F4000B53F400094804000C8
:1048B000A080400070B50F4E0F4D761BB61018BF8C
:1048C000002405D0013455F8043B9847A642F9D19D
:1048D0000A4E0B4D761B03F0BBFCB61018BF00242C
:1048E00006D0013455F8043B9847A642F9D170BD73
:1048F00070BD00BF5C8240005C824000648240006A
:104900005C8240000FB400B5074983B004AB08686F
:1049100053F8042B8168019300F066F903B05DF849
:1049200004EB04B0704700BF3800402070B4860725
:1049300046D0541E002A41D0CAB2034602E014F108
:10494000FF343BD303F8012B9D07F8D1032C2ED95C
:10495000CDB245EA05250F2C45EA054519D903F1E5
:1049600010022646103E0F2E42F8105C42F80C5CF6
:1049700042F8085C42F8045C02F11002F2D8A4F19B
:10498000100222F00F0204F00F041032032C134423
:104990000DD91E462246043A032A46F8045BFAD88B
:1049A000221F22F003020432134404F003042CB14A
:1049B000C9B21C4403F8011B9C42FBD170BC704778
:1049C00014460346C2E700BF00290CBF02220022A2
:1049D0004FF4806300F000B82DE9F043614C256886
:1049E00083B004460F4690461E4615B1AB6B002BB4
:1049F00064D0B8F1020F06D0B8F1010F00F29F8029
:104A0000002EC0F29C80636ED80734D5214628461C
:104A100001F088F8216B41B104F14003994202D0C2
:104A2000284601F0FDF900232363B4F90C3000227D
:104A3000A26162601A063AD423F44A6323F00303A6
:104A4000B8F1020FA3811DD001AB6A46214628466A
:104A500001F084FCA3891843A081002E32D1009E6E
:104A6000304601F0F3FC074600286BD0A38943F0E1
:104A70008003A38128E0A3899905C7D4A06D01F024
:104A800069FCC3E70025616E002604F1430243F090
:104A900002030120A660CE07A3812260226160612B
:104AA00001D498053ED5284603B0BDE8F0832169BE
:104AB000284601F0B5F9B4F90C30BDE7284601F0FD
:104AC00089F896E7002FCBD0AB6B002B33D0009B3F
:104AD000B4F90C2027609E421CBF42F40062A28100
:104AE000B8F1010F04BF42F00102A28192B212F0AC
:104AF0000803276166610ED0D1071AD5656E76422C
:104B0000002315F00105A661A36009D00025284601
:104B100003B0BDE8F083A360656E15F00105F5D123
:104B20009305C0D4A06D01F017FC284603B0BDE882
:104B3000F083A660F0E7284601F04CF8C7E74FF095
:104B4000FF35B0E7DDF80090B14504D0484601F0EC
:104B50007DFC074620B9B4F90C304FF0FF3592E7E1
:104B60004E4683E7380040202DE9F84F4B6E9C04F9
:104B700093462FD59368126853B30E46074602F149
:104B8000080919E920045FEA9A0817D0043D0024B7
:104B900001E0A04510D0324655F8041F384601F018
:104BA000BBF8431C04F10104F3D10023CBF8083017
:104BB000CBF80430BDE8F88FDBF808302AF0030AA0
:104BC000A3EB0A03CBF8083009F10809002BD8D170
:104BD0000020EAE701F00AFA0023CBF80830CBF80E
:104BE0000430BDE8F88F00BF2DE9F04FADB01D4691
:104BF0008B4690460793069018B1836B002B00F00C
:104C0000F380DBF86430BBF90C00DF0781B202D41B
:104C10008E0540F1FC808C040AD4DBF8643040F44B
:104C2000005123F40053ABF80C10CBF8643089B278
:104C3000080740F1B380DBF81030002B00F0AE80A5
:104C400001F01A030A2B00F0B58000230DF1700962
:104C50000B93119310930393CDF83C90CA46CDF873
:104C600010B098F800304446FBB1252B02D11CE06F
:104C7000252B03D014F8013F002BF9D1A4EB080534
:104C80009DB1109B119ACAF8008001332A44072B6A
:104C9000CAF80450119210937ADD002A40F0B084D3
:104CA000039B10922B44CA4603932378002B00F0F9
:104CB000E08300204FF000038DF8373004F1010845
:104CC00062780546064603464FF0FF3408F10108B6
:104CD000A2F12001582900F2DE82DFE811F0210262
:104CE000DC02DC022902DC02DC02DC02DC02DC0287
:104CF000DC0289029502DC02A200BD02DC029F01F7
:104D0000A401A401A401A401A401A401A401A4017B
:104D1000A401DC02DC02DC02DC02DC02DC02DC02DC
:104D2000DC02DC02DC02B201DC02DC02DC02DC02BE
:104D3000DC02DC02DC02DC02DC02DC029701DC02C9
:104D4000DC02DC02DC02DC029B01DC02DC0253023E
:104D5000DC02DC02DC02DC02DC02DC02DC02DC0263
:104D6000DC02DC025A021B02DC02DC02DC026E0204
:104D70001B02DC02DC027302DC02F5018201090283
:104D8000D702DC029A02DC02A700DC02DC022E025F
:104D90000AF1080A039B2B44039386E759460698B9
:104DA00000F0ACFD18BBBBF80C1001F01A030A2B85
:104DB0007FF44BAFBBF90E30002BFFF646AFDBF8AC
:104DC0006430DB0705D48F0503D4DBF8580001F00D
:104DD000C3FA2B4642465946069800F04DFD039013
:104DE00003982DB0BDE8F08F00F0F4FE09E7DBF882
:104DF0006430D90704D4BBF80C309A0540F1AA847A
:104E00004FF0FF33039303982DB0BDE8F08FDBF82C
:104E1000580001F09FFABBF90C0081B2FBE6764224
:104E2000079243F0040398F800204FE708969E0687
:104E300000F150840799DD060A4600F1EF83580619
:104E400040F1EC830E8804310027012207914FF0D6
:104E500000018DF837100025611C00F0168123F049
:104E60008001029156EA070140F01481002C40F0C5
:104E70005C83002A40F0B78313F00103059300F030
:104E800057840DF1B00B30230BF8413D059BA34235
:104E9000B8BF234601930DB101330193029B13F078
:104EA0000203099302D0019B02330193029B13F08A
:104EB00084030A9340F01782089B019A9D1A002DE3
:104EC00040F31182102D40F39084109B119AC44E30
:104ED000D6461027A2461946069C07E001F1020CAF
:104EE0000EF1080E0146103D102D11DD481C103248
:104EF000072811928EE8C0001090EFDD002A40F0E4
:104F0000E481103D102D11464FF0010CCE46EDDC32
:104F100054466146F2462A4407291192CAF80060B5
:104F2000CAF80450109100F3EC829DF837500AF152
:104F3000080A481C002D40F0DE81099B002B00F080
:104F4000F88102320EA902230728119210908AE8F4
:104F50000A0040F3EA81002A40F08C830A9B802BF0
:104F60004FF001001146CA4640F0E781089B019DC1
:104F70005E1B002E40F3E181102E9A4D40F35084C9
:104F8000D4461027A246069C07E001F1020E0CF160
:104F9000080C0146103E102E11DD481C1032072867
:104FA00011928CE8A0001090EFDD002A40F09D8265
:104FB000103E102E4FF0010E1146CC46EDDC54464B
:104FC000E2463244BEF1070F11928AE86000CDF844
:104FD00040E000F369830AF1080A0EF1010071460E
:104FE000ABE1089613F0200240F08C8313F010011F
:104FF00040F01A8313F0400200F0168307980A4627
:105000000146043106880791002720E7089643F0FF
:105010001003E7E7089643F0100308E743F0800326
:1050200098F8002052E6A2F13001002618F8012B72
:1050300006EB860601EB4606A2F130010929F5D9F7
:1050400046E60896002840F0088443F010039E06C8
:1050500000F14C83DD0600F1F382580640F1F08246
:10506000079DB5F900602A46F717043230463946E5
:105070000792002871F10002C0F25D83611C9DF867
:1050800037504FF001027FF4EAAE56EA070100F014
:105090004D820293012A00F08C82022A40F05C8249
:1050A0000B98CB46330906F00F0143EA07733A0920
:1050B0001E461746435C0BF8013D56EA0703F1D143
:1050C000A9EB0B030593E1E6002840F0C0839906A5
:1050D00000F16783DA0600F1F1805B0640F1EE80B3
:1050E000079A136804320792BDF80C201A80B8E5BD
:1050F00007983D4A08960B920668782230210430C2
:105100008DF8392043F00203079000278DF83810FE
:1051100002229CE60896002899D08DF8375096E731
:1051200098F80020002D7FF4D1AD01202025CDE599
:1051300043F0010398F80020C8E50896002840F0E5
:10514000938329490B919F0600F1E8820798DE06B8
:10515000014600F170825D0640F16D8204310688DF
:1051600007910027D80740F1228256EA070100F094
:105170001E8230218DF8392043F002038DF838105B
:10518000022264E60896002840F06B8317490B91D1
:10519000D9E7079908960A688DF848204FF0000073
:1051A0000A468DF8370004320120019007920590DD
:1051B0000DF1480B0293002470E643F0400398F889
:1051C000002083E598F800206C2A03BF98F801209E
:1051D00043F0200308F1010843F0100376E500BF17
:1051E0001C8140002C81400000814000EC80400088
:1051F00007990E680A46002E02F10402FFF60FAE70
:10520000079298F8002061E598F8002001202B25EE
:105210005CE507990896D1F800B04FF000028DF8D0
:1052200037200E1DBBF1000F00F0E582671C00F077
:10523000C482224600215846019301F0D9FB019B0C
:10524000002800F0E582A0EB0B020592079602937E
:105250009DF83750002419E698F800202A2A08F112
:10526000010700F0E982A2F130010929B8464FF0A8
:1052700000043FF62DAD18F8012B04EB840401EB7C
:105280004404A2F130010929F5D921E543F02003B6
:1052900098F800201AE50896002840F0DB82002AE2
:1052A00000F0E78001218DF848204FF000020191C5
:1052B0008DF8372005910DF1480B7BE7079A1368AD
:1052C00004320792039A1A60CBE40FAA049920468D
:1052D000FFF74AFC002840F039811099119A01F13A
:1052E000010CCE46FFE51099119A481C9DF83750E5
:1052F000002D3FF422AE01320DF1370501210728C0
:1053000011921090CAF80050CAF8041040F30881B6
:10531000002A40F0BC81099B002B3FF41FAE0EAB6E
:10532000022208461C931D92CA4601460AF1080A49
:1053300001300A9B802B3FF419AE059BE41A002C28
:105340002EDD102CB34D1EDDD6461026069FDDF84F
:1053500010A006E0881C0EF1080E1946103C102C17
:1053600010DD4B1C1032072B11928EE86000109359
:10537000F0DD002A65D1103C102C4FF001001146E1
:10538000CE46EEDCF246224407281192CAF80050BD
:10539000CAF80440109000F385800AF1080A013031
:1053A0000599CAF800B00A4407281192CAF80410F7
:1053B000109040F38280002A40F01881029B1092E6
:1053C000580735D5089B01995C1A002C40F3E780FB
:1053D000CA46102C40F3188210998F4E069FDDF8B4
:1053E00010B0102506E0881C0AF1080A1946103C86
:1053F000102C11DD4B1C1032072B1192CAF80060E3
:10540000CAF804501093EEDD42BB103C102C4FF054
:1054100001001146CA46EDDC224407281192CAF861
:105420000060CAF80440109051DD002A40F09B81D2
:10543000039B089A01998A42ACBF9B185B1803939F
:105440004EE00FAA51463846FFF78EFB002840F089
:105450003F811099119A481CCE467FE70FAA594602
:105460003846FFF781FB60B91099119A481CCA466B
:10547000BDE7119BDDF810B0002B40F0D481002374
:105480001093DBF8643013F0010FBBF80C3002D13D
:105490009A0540F1DE805B063FF5B2AC03982DB073
:1054A000BDE8F08F002A40F00681059A1D92012385
:1054B0001192CDF870B01093CA460AF1080A029B07
:1054C000590704D5089B01995C1A002C81DC039BC9
:1054D000089901988142ACBF5B181B18039372BBFB
:1054E00000231093CA46FFF7BCBB0FAA04992046BD
:1054F000FFF73AFB50BB1099119A01F1010ECC460F
:1055000048E5002A40F040819DF83710002900F05E
:105510001B8101220DF1370110461D921C91CA46D4
:1055200001460AF1080A013007E5029B012A00F052
:105530009880022A0DD1029300260027B0E50FAA19
:1055400004990698FFF710FB0028C9D0DDF810B0C9
:1055500097E7029300260027494600E05946F208E3
:1055600042EA4772F80806F007030746164630334A
:1055700056EA070201F8013C01F1FF3BEED1029A25
:10558000D6077FF59DAD302B3FF49AAD023930231D
:105590000BF8013CA9EB010305938B4676E4039BD2
:1055A000089A8A42ACBF9B185B18039398E70222C3
:1055B0004DE4002F08BF0A2E52D3CB463046394661
:1055C0000A22002301F0B8FF30320BF8012D3046DB
:1055D000394600230A2201F0AFFF06460F4656EA7D
:1055E0000703EBD16CE50594CB464FE40FAA049971
:1055F0000698FFF7B9FA0028A8D1119ACA465EE7C3
:105600000FAA04990698FFF7AFFA00289ED1CA4660
:10561000FFF7C0BB2C8140001C814000043116689C
:1056200007910122002712E4079801460431066819
:10563000079100270BE40E6804310791002791E5DC
:1056400007990E680A46F717043207923046394622
:105650000FE5DBF8580000F07FFEBBF80C301AE7CE
:10566000029B02930DF1B00B303601230BF8416D14
:1056700005930BE40FAA04990698FFF775FA002822
:105680007FF464AF1099119A481CCA4651E60FAADC
:1056900004990698FFF768FA00287FF457AF10992D
:1056A000119A481CCA4648E4002A40F09180012023
:1056B0001146CA4641E60FAA04990698FFF754FA24
:1056C00000287FF443AF1098119A0130CA4667E66C
:1056D000D346D6E6079E073626F0070202F10801F8
:1056E000D2E9006707910122FFF7B1BB079E073699
:1056F00026F00706D6E9000106F1080207920646E1
:105700000F46B6E4079E073626F0070202F10801AD
:10571000D2E9006707910022FFF799BB079E073681
:1057200026F0070101F108000790D1E9006719E5AB
:10573000CB46FFF7ABBB2D25764267EB47078DF8CD
:1057400037500122FFF788BB099BB3B911460120EE
:10575000CA46F2E5DBF8580000F0FEFD4FF0FF33DB
:105760000393FFF750BB0FAA04990698FFF7FCF9C3
:1057700000287FF4EBAE119AA9E60EAB02221C932F
:105780001D920120CA46D0E50FAA04990698FFF79A
:10579000EBF900287FF4DAAE1099119A481CCA463A
:1057A000A4E5079A03991368CD17084604322946E1
:1057B0000792C3E90001FFF754BA584607960293CF
:1057C00001F07EFC002405909DF83750FFF75EBB8A
:1057D0000FAA04990698FFF7C7F900287FF4B6AE20
:1057E0001099119A481CCA46A7E51099119A204EA3
:1057F0000131FFF790BB062C28BF062405940796BD
:105800000194DFF870B0D5E41098194E013003E62A
:1058100005949DF83750079602930446FFF736BB70
:105820008646FFF7CEBB06980FAA5946FFF79CF9AC
:1058300000283FF424AE24E6079998F801200C686C
:10584000043144EAE474B8460791FFF73FBA8DF893
:1058500037503CE48DF8375021E58DF83750FFF78D
:10586000F4BB8DF8375091E48DF8375069E400BFF0
:105870001C814000148140002DE9F0410C46ADF53B
:105880008D6D8989666EE589199621F002010646BB
:10589000E069ADF80C1017464FF48061626AADF80C
:1058A0000E5098461AAD0023079016A80992069349
:1058B000009504950291059100F048FD43463A4653
:1058C00069463046FFF790F9051E07DB304669460A
:1058D00000F028F9002818BF4FF0FF35BDF80C3054
:1058E0005B0603D5A38943F04003A381169800F01B
:1058F0002FFD28460DF58D6DBDE8F08138B5304B94
:105900001B6805460C4613B19A6B002A38D0B4F9CF
:105910000C2093B218070CD52069A8B113F001022E
:105920001ED0636900225B42A361A260F0B1002037
:1059300038BDD9063CD5580726D4206942F0080363
:10594000A3819BB20028E9D103F42072B2F5007F55
:10595000E4D02846214600F02FFDA3892069DDE729
:10596000990758BF6269A2600028E0D1B4F90C30F1
:105970001A06DDD543F04003A3814FF0FF3038BD58
:10598000184600F027F9C2E7216B51B104F140033A
:10599000994204D0284600F043FAB4F90C200023C1
:1059A000236300232069636022F024022060C5E79E
:1059B00042F0400209232B604FF0FF30A28138BD36
:1059C00038004020024B13B1024800F005B8704780
:1059D00000000000455C4000002301461A461846BE
:1059E00001F082BCB1F90C309AB22DE9F0410D46BC
:1059F000110780463AD46A6843F40063002AAB81F9
:105A00006FDDAC6A002C49D000229BB2D8F8006050
:105A1000C8F8002013F4805267D02A6D5F0705D5BF
:105A200069682B6B521A0BB1EB6BD21A0023E96930
:105A30004046A047441C3CD0B5F90C302A692A6086
:105A400023F400630022AB81DB046A6047D4296B36
:105A5000C8F8006011B305F14003994202D04046F6
:105A600000F0DEF900202863BDE8F0812E69AEB1B8
:105A70002C682E6091070CBF6B690023A41BAB60E0
:105A80000AE0234632466F6AE9694046B847002873
:105A9000A4EB0004064404DD002CF2DC0020BDE889
:105AA000F081AB8943F04003AB814FF0FF30BDE89C
:105AB000F081D8F800401D2CF3D8194BE340DB43AC
:105AC00013F00103EDD1B5F90C206B6022F40063F3
:105AD0002969AB81DA042960B9D5002CB7D12865D2
